{
  "contractName": "DappTokenSale",
  "abi": [
    {
      "inputs": [
        {
          "internalType": "contract DappToken",
          "name": "_tokenContract",
          "type": "address"
        },
        {
          "internalType": "uint256",
          "name": "_tokenPrice",
          "type": "uint256"
        }
      ],
      "stateMutability": "nonpayable",
      "type": "constructor"
    },
    {
      "anonymous": false,
      "inputs": [
        {
          "indexed": false,
          "internalType": "address",
          "name": "_buyer",
          "type": "address"
        },
        {
          "indexed": false,
          "internalType": "uint256",
          "name": "_amount",
          "type": "uint256"
        }
      ],
      "name": "Sell",
      "type": "event"
    },
    {
      "inputs": [],
      "name": "tokenContract",
      "outputs": [
        {
          "internalType": "contract DappToken",
          "name": "",
          "type": "address"
        }
      ],
      "stateMutability": "view",
      "type": "function",
      "constant": true
    },
    {
      "inputs": [],
      "name": "tokenPrice",
      "outputs": [
        {
          "internalType": "uint256",
          "name": "",
          "type": "uint256"
        }
      ],
      "stateMutability": "view",
      "type": "function",
      "constant": true
    },
    {
      "inputs": [],
      "name": "tokensSold",
      "outputs": [
        {
          "internalType": "uint256",
          "name": "",
          "type": "uint256"
        }
      ],
      "stateMutability": "view",
      "type": "function",
      "constant": true
    },
    {
      "inputs": [
        {
          "internalType": "uint256",
          "name": "_numberOfTokens",
          "type": "uint256"
        },
        {
          "internalType": "address",
          "name": "_caller",
          "type": "address"
        }
      ],
      "name": "buyTokens",
      "outputs": [],
      "stateMutability": "payable",
      "type": "function",
      "payable": true
    },
    {
      "inputs": [],
      "name": "endSale",
      "outputs": [],
      "stateMutability": "nonpayable",
      "type": "function"
    }
  ],
  "bytecode": "0x608060405234801561001057600080fd5b50604051610bc0380380610bc08339818101604052604081101561003357600080fd5b810190808051906020019092919080519060200190929190505050336000806101000a81548173ffffffffffffffffffffffffffffffffffffffff021916908373ffffffffffffffffffffffffffffffffffffffff16021790555081600160006101000a81548173ffffffffffffffffffffffffffffffffffffffff021916908373ffffffffffffffffffffffffffffffffffffffff160217905550806002819055505050610ad9806100e76000396000f3fe60806040526004361061004a5760003560e01c8063380d831b1461004f578063518ab2a81461006657806355a373d6146100915780637ff9b596146100d2578063c625e9b1146100fd575b600080fd5b34801561005b57600080fd5b5061006461014b565b005b34801561007257600080fd5b5061007b610432565b6040518082815260200191505060405180910390f35b34801561009d57600080fd5b506100a6610438565b604051808273ffffffffffffffffffffffffffffffffffffffff16815260200191505060405180910390f35b3480156100de57600080fd5b506100e761045e565b6040518082815260200191505060405180910390f35b6101496004803603604081101561011357600080fd5b8101908080359060200190929190803573ffffffffffffffffffffffffffffffffffffffff169060200190929190505050610464565b005b60008054906101000a900473ffffffffffffffffffffffffffffffffffffffff1673ffffffffffffffffffffffffffffffffffffffff163373ffffffffffffffffffffffffffffffffffffffff161461020c576040517f08c379a000000000000000000000000000000000000000000000000000000000815260040180806020018281038252601b8152602001807f6d73672e73656e646572206973206e6f74207468652061646d696e000000000081525060200191505060405180910390fd5b600160009054906101000a900473ffffffffffffffffffffffffffffffffffffffff1673ffffffffffffffffffffffffffffffffffffffff166335ebaeb860008054906101000a900473ffffffffffffffffffffffffffffffffffffffff16600160009054906101000a900473ffffffffffffffffffffffffffffffffffffffff1673ffffffffffffffffffffffffffffffffffffffff166370a08231306040518263ffffffff1660e01b8152600401808273ffffffffffffffffffffffffffffffffffffffff16815260200191505060206040518083038186803b1580156102f457600080fd5b505afa158015610308573d6000803e3d6000fd5b505050506040513d602081101561031e57600080fd5b8101908080519060200190929190505050306040518463ffffffff1660e01b8152600401808473ffffffffffffffffffffffffffffffffffffffff1681526020018381526020018273ffffffffffffffffffffffffffffffffffffffff1681526020019350505050602060405180830381600087803b1580156103a057600080fd5b505af11580156103b4573d6000803e3d6000fd5b505050506040513d60208110156103ca57600080fd5b8101908080519060200190929190505050610430576040517f08c379a000000000000000000000000000000000000000000000000000000000815260040180806020018281038252602b815260200180610a2f602b913960400191505060405180910390fd5b565b60035481565b600160009054906101000a900473ffffffffffffffffffffffffffffffffffffffff1681565b60025481565b6104906402540be400610482600254856107b890919063ffffffff16565b61083e90919063ffffffff16565b34146104e7576040517f08c379a0000000000000000000000000000000000000000000000000000000008152600401808060200182810382526029815260200180610a5a6029913960400191505060405180910390fd5b81600160009054906101000a900473ffffffffffffffffffffffffffffffffffffffff1673ffffffffffffffffffffffffffffffffffffffff166370a08231306040518263ffffffff1660e01b8152600401808273ffffffffffffffffffffffffffffffffffffffff16815260200191505060206040518083038186803b15801561057157600080fd5b505afa158015610585573d6000803e3d6000fd5b505050506040513d602081101561059b57600080fd5b81019080805190602001909291905050501015610603576040517f08c379a00000000000000000000000000000000000000000000000000000000081526004018080602001828103825260278152602001806109d76027913960400191505060405180910390fd5b600160009054906101000a900473ffffffffffffffffffffffffffffffffffffffff1673ffffffffffffffffffffffffffffffffffffffff166335ebaeb88284306040518463ffffffff1660e01b8152600401808473ffffffffffffffffffffffffffffffffffffffff1681526020018381526020018273ffffffffffffffffffffffffffffffffffffffff1681526020019350505050602060405180830381600087803b1580156106b457600080fd5b505af11580156106c8573d6000803e3d6000fd5b505050506040513d60208110156106de57600080fd5b8101908080519060200190929190505050610744576040517f08c379a00000000000000000000000000000000000000000000000000000000081526004018080602001828103825260318152602001806109fe6031913960400191505060405180910390fd5b6107598260035461088890919063ffffffff16565b6003819055507f5e5e995ce3133561afceaa51a9a154d5db228cd7525d34df5185582c18d3df098183604051808373ffffffffffffffffffffffffffffffffffffffff1681526020018281526020019250505060405180910390a15050565b6000808314156107cb5760009050610838565b60008284029050828482816107dc57fe5b0414610833576040517f08c379a0000000000000000000000000000000000000000000000000000000008152600401808060200182810382526021815260200180610a836021913960400191505060405180910390fd5b809150505b92915050565b600061088083836040518060400160405280601a81526020017f536166654d6174683a206469766973696f6e206279207a65726f000000000000815250610910565b905092915050565b600080828401905083811015610906576040517f08c379a000000000000000000000000000000000000000000000000000000000815260040180806020018281038252601b8152602001807f536166654d6174683a206164646974696f6e206f766572666c6f77000000000081525060200191505060405180910390fd5b8091505092915050565b600080831182906109bc576040517f08c379a00000000000000000000000000000000000000000000000000000000081526004018080602001828103825283818151815260200191508051906020019080838360005b83811015610981578082015181840152602081019050610966565b50505050905090810190601f1680156109ae5780820380516001836020036101000a031916815260200191505b509250505060405180910390fd5b5060008385816109c857fe5b04905080915050939250505056fe636f6e747261637420646f6573206e6f7420686176652073756666696369656e7420746f6b656e756e61626c6520746f2063616c6c207472616e736665722066756e6374696f6e206f6620746f6b656e636f6e7472616374756e61626c6520746f207472616e736665722072656d61696e696e6720746f6b656e20746f2061646d696e696e73696666696369656e742076616c75652073656e7420627920746865206d73672e73656e646572536166654d6174683a206d756c7469706c69636174696f6e206f766572666c6f77a2646970667358221220a55b515686353bcdf8053b1f53e082978698645ec0a5a8aec107d46e1f0c9a9b64736f6c63430007010033",
  "source": "// SPDX-License-Identifier: GPL-3.0\r\npragma solidity >=0.4.0 <0.8.0;\r\n\r\nimport './DappToken.sol';\r\nimport '@openzeppelin/contracts/math/SafeMath.sol';\r\n\r\ncontract DappTokenSale{\r\n\r\n    using SafeMath for uint256;\r\n\r\n    address admin;\r\n    DappToken public tokenContract;\r\n    uint256 public tokenPrice;\r\n    uint256 public tokensSold;\r\n    address currentContract;\r\n\r\n    event Sell(address _buyer, uint256 _amount);\r\n\r\n    constructor(DappToken _tokenContract, uint256 _tokenPrice) {\r\n        admin = msg.sender;\r\n        tokenContract = _tokenContract;\r\n        tokenPrice = _tokenPrice;\r\n    } \r\n\r\n    function buyTokens(uint256 _numberOfTokens, address _caller) public payable {\r\n        require(msg.value == (_numberOfTokens.mul(tokenPrice)).div(10**10), 'insifficient value sent by the msg.sender');\r\n        //currentContract = address(this);\r\n        // currentContract = this; //it cannot be implicitly converted this way\r\n        require(tokenContract.balanceOf(address(this)) >= _numberOfTokens, 'contract does not have sufficient token');\r\n        //implicit converstion of SC to address is given by this\r\n        //explict conversion of SC to address is given by address(this)\r\n        // address _from = address(this);\r\n        require(tokenContract.tTransfer(_caller, _numberOfTokens, address(this)), 'unable to call transfer function of tokencontract');\r\n        \r\n        //require(tokenContract.transfer(_caller, _numberOfTokens), 'unable to call transfer function of tokencontract');\r\n        \r\n        tokensSold = tokensSold.add(_numberOfTokens);\r\n        emit Sell(_caller, _numberOfTokens);\r\n    }\r\n\r\n    function endSale() public {\r\n        require(msg.sender == admin,'msg.sender is not the admin');\r\n        require(tokenContract.tTransfer(admin, tokenContract.balanceOf(address(this)), address(this)),'unable to transfer remaining token to admin');\r\n        \r\n        //require(tokenContract.transfer(admin, tokenContract.balanceOf(address(this))),'unable to transfer remaining token to admin');\r\n\r\n        //selfdistruct garna ni milcha\r\n        //contract cannot be deleted in the BC but the varibales will be reset \r\n        //thats the way to selfdestruct in solidity\r\n        //selfdestruct(admin);\r\n    }\r\n}",
  "sourcePath": "D:\\apurba\\projects\\MusicDapp1\\musicDapp\\src\\contracts\\DappTokenSale.sol",
  "compiler": {
    "name": "solc",
    "version": "0.7.1+commit.f4a555be.Emscripten.clang"
  },
  "schemaVersion": "3.0.23",
  "updatedAt": "2021-02-17T12:51:37.623Z",
  "networkType": "ethereum",
  "devdoc": {
    "kind": "dev",
    "methods": {},
    "version": 1
  },
  "userdoc": {
    "kind": "user",
    "methods": {},
    "version": 1
  }
}