{
  "contractName": "DappTokenSale",
  "abi": [
    {
      "inputs": [
        {
          "internalType": "contract DappToken",
          "name": "_tokenContract",
          "type": "address"
        },
        {
          "internalType": "uint256",
          "name": "_tokenPrice",
          "type": "uint256"
        }
      ],
      "payable": false,
      "stateMutability": "nonpayable",
      "type": "constructor"
    },
    {
      "anonymous": false,
      "inputs": [
        {
          "indexed": false,
          "internalType": "address",
          "name": "_buyer",
          "type": "address"
        },
        {
          "indexed": false,
          "internalType": "uint256",
          "name": "_amount",
          "type": "uint256"
        }
      ],
      "name": "Sell",
      "type": "event"
    },
    {
      "constant": true,
      "inputs": [],
      "name": "tokenContract",
      "outputs": [
        {
          "internalType": "contract DappToken",
          "name": "",
          "type": "address"
        }
      ],
      "payable": false,
      "stateMutability": "view",
      "type": "function"
    },
    {
      "constant": true,
      "inputs": [],
      "name": "tokenPrice",
      "outputs": [
        {
          "internalType": "uint256",
          "name": "",
          "type": "uint256"
        }
      ],
      "payable": false,
      "stateMutability": "view",
      "type": "function"
    },
    {
      "constant": true,
      "inputs": [],
      "name": "tokensSold",
      "outputs": [
        {
          "internalType": "uint256",
          "name": "",
          "type": "uint256"
        }
      ],
      "payable": false,
      "stateMutability": "view",
      "type": "function"
    },
    {
      "constant": false,
      "inputs": [
        {
          "internalType": "uint256",
          "name": "_numberOfTokens",
          "type": "uint256"
        },
        {
          "internalType": "address",
          "name": "_caller",
          "type": "address"
        }
      ],
      "name": "buyTokens",
      "outputs": [],
      "payable": true,
      "stateMutability": "payable",
      "type": "function"
    },
    {
      "constant": false,
      "inputs": [],
      "name": "endSale",
      "outputs": [],
      "payable": false,
      "stateMutability": "nonpayable",
      "type": "function"
    }
  ],
  "bytecode": "0x608060405234801561001057600080fd5b50604051610ac0380380610ac08339818101604052604081101561003357600080fd5b810190808051906020019092919080519060200190929190505050336000806101000a81548173ffffffffffffffffffffffffffffffffffffffff021916908373ffffffffffffffffffffffffffffffffffffffff16021790555081600160006101000a81548173ffffffffffffffffffffffffffffffffffffffff021916908373ffffffffffffffffffffffffffffffffffffffff1602179055508060028190555050506109d9806100e76000396000f3fe608060405260043610610067576000357c010000000000000000000000000000000000000000000000000000000090048063380d831b1461006c578063518ab2a81461008357806355a373d6146100ae5780637ff9b59614610105578063c625e9b114610130575b600080fd5b34801561007857600080fd5b5061008161017e565b005b34801561008f57600080fd5b506100986104e1565b6040518082815260200191505060405180910390f35b3480156100ba57600080fd5b506100c36104e7565b604051808273ffffffffffffffffffffffffffffffffffffffff1673ffffffffffffffffffffffffffffffffffffffff16815260200191505060405180910390f35b34801561011157600080fd5b5061011a61050d565b6040518082815260200191505060405180910390f35b61017c6004803603604081101561014657600080fd5b8101908080359060200190929190803573ffffffffffffffffffffffffffffffffffffffff169060200190929190505050610513565b005b6000809054906101000a900473ffffffffffffffffffffffffffffffffffffffff1673ffffffffffffffffffffffffffffffffffffffff163373ffffffffffffffffffffffffffffffffffffffff1614610240576040517f08c379a000000000000000000000000000000000000000000000000000000000815260040180806020018281038252601b8152602001807f6d73672e73656e646572206973206e6f74207468652061646d696e000000000081525060200191505060405180910390fd5b600160009054906101000a900473ffffffffffffffffffffffffffffffffffffffff1673ffffffffffffffffffffffffffffffffffffffff1663dbba0f016000809054906101000a900473ffffffffffffffffffffffffffffffffffffffff16600160009054906101000a900473ffffffffffffffffffffffffffffffffffffffff1673ffffffffffffffffffffffffffffffffffffffff166370a08231306040518263ffffffff167c0100000000000000000000000000000000000000000000000000000000028152600401808273ffffffffffffffffffffffffffffffffffffffff1673ffffffffffffffffffffffffffffffffffffffff16815260200191505060206040518083038186803b15801561035b57600080fd5b505afa15801561036f573d6000803e3d6000fd5b505050506040513d602081101561038557600080fd5b8101908080519060200190929190505050306040518463ffffffff167c0100000000000000000000000000000000000000000000000000000000028152600401808473ffffffffffffffffffffffffffffffffffffffff1673ffffffffffffffffffffffffffffffffffffffff1681526020018381526020018273ffffffffffffffffffffffffffffffffffffffff1673ffffffffffffffffffffffffffffffffffffffff1681526020019350505050602060405180830381600087803b15801561044f57600080fd5b505af1158015610463573d6000803e3d6000fd5b505050506040513d602081101561047957600080fd5b81019080805190602001909291905050506104df576040517f08c379a000000000000000000000000000000000000000000000000000000000815260040180806020018281038252602b815260200180610951602b913960400191505060405180910390fd5b565b60035481565b600160009054906101000a900473ffffffffffffffffffffffffffffffffffffffff1681565b60025481565b61051f826002546108cc565b3414610576576040517f08c379a000000000000000000000000000000000000000000000000000000000815260040180806020018281038252602981526020018061097c6029913960400191505060405180910390fd5b81600160009054906101000a900473ffffffffffffffffffffffffffffffffffffffff1673ffffffffffffffffffffffffffffffffffffffff166370a08231306040518263ffffffff167c0100000000000000000000000000000000000000000000000000000000028152600401808273ffffffffffffffffffffffffffffffffffffffff1673ffffffffffffffffffffffffffffffffffffffff16815260200191505060206040518083038186803b15801561063257600080fd5b505afa158015610646573d6000803e3d6000fd5b505050506040513d602081101561065c57600080fd5b810190808051906020019092919050505010156106c4576040517f08c379a000000000000000000000000000000000000000000000000000000000815260040180806020018281038252602781526020018061092a6027913960400191505060405180910390fd5b600160009054906101000a900473ffffffffffffffffffffffffffffffffffffffff1673ffffffffffffffffffffffffffffffffffffffff1663dbba0f018284306040518463ffffffff167c0100000000000000000000000000000000000000000000000000000000028152600401808473ffffffffffffffffffffffffffffffffffffffff1673ffffffffffffffffffffffffffffffffffffffff1681526020018381526020018273ffffffffffffffffffffffffffffffffffffffff1673ffffffffffffffffffffffffffffffffffffffff1681526020019350505050602060405180830381600087803b1580156107bd57600080fd5b505af11580156107d1573d6000803e3d6000fd5b505050506040513d60208110156107e757600080fd5b810190808051906020019092919050505061084d576040517f08c379a00000000000000000000000000000000000000000000000000000000081526004018080602001828103825260318152602001806108f96031913960400191505060405180910390fd5b816003600082825401925050819055507f5e5e995ce3133561afceaa51a9a154d5db228cd7525d34df5185582c18d3df098183604051808373ffffffffffffffffffffffffffffffffffffffff1673ffffffffffffffffffffffffffffffffffffffff1681526020018281526020019250505060405180910390a15050565b6000808214806108e957508282838502925082816108e657fe5b04145b6108f257600080fd5b9291505056fe756e61626c6520746f2063616c6c207472616e73666572206675636e74696f6e206f6620746f6b656e636f6e7472616374636f6e747261637420646f6573206e6f7420686176652073756666696369656e7420746f6b656e756e61626c6520746f207472616e736665722072656d61696e696e6720746f6b656e20746f2061646d696e696e73696666696369656e742076616c75652073656e7420627920746865206d73672e73656e646572a265627a7a72315820496675b7d81188936356f762717ed8f933e4167bcc064ba808ac6a85a775229e64736f6c63430005100032",
  "source": "pragma solidity 0.5.16;\n\nimport './DappToken.sol';\n\ncontract DappTokenSale{\n\n    address admin;\n    DappToken public tokenContract;\n    uint256 public tokenPrice;\n    uint256 public tokensSold;\n    address currentContract;\n\n    event Sell(address _buyer, uint256 _amount);\n\n    constructor(DappToken _tokenContract, uint256 _tokenPrice) public{\n        admin = msg.sender;\n        tokenContract = _tokenContract;\n        tokenPrice = _tokenPrice;\n    } \n\n    function multiply(uint x, uint y) internal pure returns (uint z) {\n        require(y == 0 || (z = x * y) / y == x);\n    }\n\n    // function buyTokens(uint256 _numberOfTokens) public payable {\n    //     require(msg.value == multiply(_numberOfTokens, tokenPrice), 'insifficient value sent by the msg.sender');\n    //     //currentContract = address(this);\n    //     // currentContract = this; //it cannot be implicitly converted this way\n    //     require(tokenContract.balanceOf(address(this)) >= _numberOfTokens, 'contract does not have sufficient token');\n    //     //implicit converstion of SC to address is given by this\n    //     //explict conversion of SC to address is given by address(this)\n    //     require(tokenContract.transfer(msg.sender, _numberOfTokens), 'unable to call transfer fucntion of tokencontract');\n    //     tokensSold += _numberOfTokens;\n    //     emit Sell(msg.sender, _numberOfTokens);\n    // }\n\n    function buyTokens(uint256 _numberOfTokens, address _caller) public payable {\n        require(msg.value == multiply(_numberOfTokens, tokenPrice), 'insifficient value sent by the msg.sender');\n        //currentContract = address(this);\n        // currentContract = this; //it cannot be implicitly converted this way\n        require(tokenContract.balanceOf(address(this)) >= _numberOfTokens, 'contract does not have sufficient token');\n        //implicit converstion of SC to address is given by this\n        //explict conversion of SC to address is given by address(this)\n        // address _from = address(this);\n        require(tokenContract.transfer(_caller, _numberOfTokens, address(this)), 'unable to call transfer fucntion of tokencontract');\n        tokensSold += _numberOfTokens;\n        emit Sell(_caller, _numberOfTokens);\n    }\n\n    function endSale() public {\n        require(msg.sender == admin,'msg.sender is not the admin');\n        require(tokenContract.transfer(admin, tokenContract.balanceOf(address(this)), address(this)),'unable to transfer remaining token to admin');\n\n        //selfdistruct garna ni milcha\n        //contract cannot be deleted in the BC but the varibales will be reset \n        //thats the way to selfdestruct in solidity\n        //selfdestruct(admin);\n        //write a test to see if the tokenprice is 0 i.e reset after self destruct\n    }\n}",
  "sourcePath": "/home/ak/WebstormProjects/musicDapp/src/contracts/DappTokenSale.sol",
  "compiler": {
    "name": "solc",
    "version": "0.5.16+commit.9c3226ce.Emscripten.clang"
  },
  "schemaVersion": "3.2.5",
  "updatedAt": "2020-09-24T11:51:22.167Z",
  "networkType": "ethereum",
  "devdoc": {
    "methods": {}
  },
  "userdoc": {
    "methods": {}
  }
}