{
  "contractName": "MusicContract",
  "abi": [
    {
      "inputs": [
        {
          "internalType": "contract DappToken",
          "name": "_tokenContract",
          "type": "address"
        },
        {
          "internalType": "uint256",
          "name": "_tokenPrice",
          "type": "uint256"
        }
      ],
      "stateMutability": "nonpayable",
      "type": "constructor"
    },
    {
      "anonymous": false,
      "inputs": [
        {
          "indexed": true,
          "internalType": "address",
          "name": "owner",
          "type": "address"
        },
        {
          "indexed": false,
          "internalType": "uint256",
          "name": "numberOfTokens",
          "type": "uint256"
        }
      ],
      "name": "RedeemTokens",
      "type": "event"
    },
    {
      "anonymous": false,
      "inputs": [
        {
          "indexed": false,
          "internalType": "string",
          "name": "musicIdentifier",
          "type": "string"
        },
        {
          "indexed": true,
          "internalType": "address",
          "name": "singer",
          "type": "address"
        },
        {
          "indexed": false,
          "internalType": "uint256",
          "name": "singerPercentage",
          "type": "uint256"
        },
        {
          "indexed": true,
          "internalType": "address",
          "name": "producer",
          "type": "address"
        },
        {
          "indexed": false,
          "internalType": "uint256",
          "name": "producerPercentage",
          "type": "uint256"
        },
        {
          "indexed": true,
          "internalType": "address",
          "name": "writer",
          "type": "address"
        },
        {
          "indexed": false,
          "internalType": "uint256",
          "name": "writerPercenrage",
          "type": "uint256"
        }
      ],
      "name": "contractInitialized",
      "type": "event"
    },
    {
      "inputs": [
        {
          "internalType": "address",
          "name": "",
          "type": "address"
        }
      ],
      "name": "balanceOf",
      "outputs": [
        {
          "internalType": "uint256",
          "name": "redeemableBalance",
          "type": "uint256"
        }
      ],
      "stateMutability": "view",
      "type": "function",
      "constant": true
    },
    {
      "inputs": [],
      "name": "contractCount",
      "outputs": [
        {
          "internalType": "uint256",
          "name": "",
          "type": "uint256"
        }
      ],
      "stateMutability": "view",
      "type": "function",
      "constant": true
    },
    {
      "inputs": [],
      "name": "tokenContract",
      "outputs": [
        {
          "internalType": "contract DappToken",
          "name": "",
          "type": "address"
        }
      ],
      "stateMutability": "view",
      "type": "function",
      "constant": true
    },
    {
      "inputs": [],
      "name": "tokenPrice",
      "outputs": [
        {
          "internalType": "uint256",
          "name": "",
          "type": "uint256"
        }
      ],
      "stateMutability": "view",
      "type": "function",
      "constant": true
    },
    {
      "inputs": [
        {
          "internalType": "string",
          "name": "_musicIdentifer",
          "type": "string"
        },
        {
          "internalType": "address",
          "name": "_singer",
          "type": "address"
        },
        {
          "internalType": "uint256",
          "name": "_sPer",
          "type": "uint256"
        },
        {
          "internalType": "address",
          "name": "_producer",
          "type": "address"
        },
        {
          "internalType": "uint256",
          "name": "_pPer",
          "type": "uint256"
        },
        {
          "internalType": "address",
          "name": "_writer",
          "type": "address"
        },
        {
          "internalType": "uint256",
          "name": "_wPer",
          "type": "uint256"
        }
      ],
      "name": "setContract",
      "outputs": [],
      "stateMutability": "nonpayable",
      "type": "function"
    },
    {
      "inputs": [
        {
          "internalType": "uint256",
          "name": "_amount",
          "type": "uint256"
        },
        {
          "internalType": "string",
          "name": "_musicIdentifer",
          "type": "string"
        }
      ],
      "name": "storeAndAllocateTokens",
      "outputs": [
        {
          "internalType": "bool",
          "name": "",
          "type": "bool"
        }
      ],
      "stateMutability": "nonpayable",
      "type": "function"
    },
    {
      "inputs": [
        {
          "internalType": "uint256",
          "name": "_amountOfToken",
          "type": "uint256"
        },
        {
          "internalType": "address",
          "name": "_owner",
          "type": "address"
        }
      ],
      "name": "redeemTokens",
      "outputs": [],
      "stateMutability": "payable",
      "type": "function",
      "payable": true
    }
  ],
  "bytecode": "0x6080604052600060025534801561001557600080fd5b5060405161182b38038061182b8339818101604052604081101561003857600080fd5b81019080805190602001909291908051906020019092919050505081600160006101000a81548173ffffffffffffffffffffffffffffffffffffffff021916908373ffffffffffffffffffffffffffffffffffffffff16021790555080600081905550505061177f806100ac6000396000f3fe6080604052600436106100705760003560e01c806370a082311161004e57806370a08231146102e45780637ff9b596146103495780638736381a14610374578063f68073821461039f57610070565b8063234fac161461007557806330f558611461015d57806355a373d6146102a3575b600080fd5b34801561008157600080fd5b506101456004803603604081101561009857600080fd5b8101908080359060200190929190803590602001906401000000008111156100bf57600080fd5b8201836020820111156100d157600080fd5b803590602001918460018302840111640100000000831117156100f357600080fd5b91908080601f016020809104026020016040519081016040528093929190818152602001838380828437600081840152601f19601f8201169050808301925050505050505091929192905050506103ed565b60405180821515815260200191505060405180910390f35b34801561016957600080fd5b506102a1600480360360e081101561018057600080fd5b810190808035906020019064010000000081111561019d57600080fd5b8201836020820111156101af57600080fd5b803590602001918460018302840111640100000000831117156101d157600080fd5b91908080601f016020809104026020016040519081016040528093929190818152602001838380828437600081840152601f19601f820116905080830192505050505050509192919290803573ffffffffffffffffffffffffffffffffffffffff16906020019092919080359060200190929190803573ffffffffffffffffffffffffffffffffffffffff16906020019092919080359060200190929190803573ffffffffffffffffffffffffffffffffffffffff169060200190929190803590602001909291905050506107bd565b005b3480156102af57600080fd5b506102b8610d54565b604051808273ffffffffffffffffffffffffffffffffffffffff16815260200191505060405180910390f35b3480156102f057600080fd5b506103336004803603602081101561030757600080fd5b81019080803573ffffffffffffffffffffffffffffffffffffffff169060200190929190505050610d7a565b6040518082815260200191505060405180910390f35b34801561035557600080fd5b5061035e610d98565b6040518082815260200191505060405180910390f35b34801561038057600080fd5b50610389610d9e565b6040518082815260200191505060405180910390f35b6103eb600480360360408110156103b557600080fd5b8101908080359060200190929190803573ffffffffffffffffffffffffffffffffffffffff169060200190929190505050610da4565b005b60006103f76114ec565b6004836040518082805190602001908083835b6020831061042d578051825260208201915060208101905060208303925061040a565b6001836020036101000a03801982511681845116808217855250505050505090500191505090815260200160405180910390206040518060e0016040529081600082018054600181600116156101000203166002900480601f0160208091040260200160405190810160405280929190818152602001828054600181600116156101000203166002900480156105045780601f106104d957610100808354040283529160200191610504565b820191906000526020600020905b8154815290600101906020018083116104e757829003601f168201915b505050505081526020016001820160009054906101000a900473ffffffffffffffffffffffffffffffffffffffff1673ffffffffffffffffffffffffffffffffffffffff1673ffffffffffffffffffffffffffffffffffffffff168152602001600282015481526020016003820160009054906101000a900473ffffffffffffffffffffffffffffffffffffffff1673ffffffffffffffffffffffffffffffffffffffff1673ffffffffffffffffffffffffffffffffffffffff168152602001600482015481526020016005820160009054906101000a900473ffffffffffffffffffffffffffffffffffffffff1673ffffffffffffffffffffffffffffffffffffffff1673ffffffffffffffffffffffffffffffffffffffff168152602001600682015481525050905060008160400151146106b057610665606461065783604001518761124c90919063ffffffff16565b6112d290919063ffffffff16565b60036000836020015173ffffffffffffffffffffffffffffffffffffffff1673ffffffffffffffffffffffffffffffffffffffff168152602001908152602001600020600001819055505b60008160c0015114610731576106e660646106d88360c001518761124c90919063ffffffff16565b6112d290919063ffffffff16565b600360008360a0015173ffffffffffffffffffffffffffffffffffffffff1673ffffffffffffffffffffffffffffffffffffffff168152602001908152602001600020600001819055505b60008160800151146107b257610767606461075983608001518761124c90919063ffffffff16565b6112d290919063ffffffff16565b60036000836060015173ffffffffffffffffffffffffffffffffffffffff1673ffffffffffffffffffffffffffffffffffffffff168152602001908152602001600020600001819055505b600191505092915050565b6000875111610817576040517f08c379a000000000000000000000000000000000000000000000000000000000815260040180806020018281038252602a8152602001806116b8602a913960400191505060405180910390fd5b600073ffffffffffffffffffffffffffffffffffffffff168673ffffffffffffffffffffffffffffffffffffffff1614156108ba576040517f08c379a000000000000000000000000000000000000000000000000000000000815260040180806020018281038252601d8152602001807f53696e67657220616464726573732063616e6e6f74206265207a65726f00000081525060200191505060405180910390fd5b6000851415610931576040517f08c379a00000000000000000000000000000000000000000000000000000000081526004018080602001828103825260208152602001807f53696e6765722070657263656e746167652063616e6e6f74206265207a65726f81525060200191505060405180910390fd5b600073ffffffffffffffffffffffffffffffffffffffff168473ffffffffffffffffffffffffffffffffffffffff1614156109c057600083146109bf576040517f08c379a00000000000000000000000000000000000000000000000000000000081526004018080602001828103825260358152602001806116e26035913960400191505060405180910390fd5b5b600073ffffffffffffffffffffffffffffffffffffffff168273ffffffffffffffffffffffffffffffffffffffff161415610a4f5760008114610a4e576040517f08c379a00000000000000000000000000000000000000000000000000000000081526004018080602001828103825260338152602001806117176033913960400191505060405180910390fd5b5b6002600081548092919060010191905055506040518060e001604052808881526020018773ffffffffffffffffffffffffffffffffffffffff1681526020018681526020018573ffffffffffffffffffffffffffffffffffffffff1681526020018481526020018373ffffffffffffffffffffffffffffffffffffffff168152602001828152506004886040518082805190602001908083835b60208310610b0c5780518252602082019150602081019050602083039250610ae9565b6001836020036101000a03801982511681845116808217855250505050505090500191505090815260200160405180910390206000820151816000019080519060200190610b5b92919061156b565b5060208201518160010160006101000a81548173ffffffffffffffffffffffffffffffffffffffff021916908373ffffffffffffffffffffffffffffffffffffffff1602179055506040820151816002015560608201518160030160006101000a81548173ffffffffffffffffffffffffffffffffffffffff021916908373ffffffffffffffffffffffffffffffffffffffff1602179055506080820151816004015560a08201518160050160006101000a81548173ffffffffffffffffffffffffffffffffffffffff021916908373ffffffffffffffffffffffffffffffffffffffff16021790555060c082015181600601559050508173ffffffffffffffffffffffffffffffffffffffff168473ffffffffffffffffffffffffffffffffffffffff168773ffffffffffffffffffffffffffffffffffffffff167f99eb2904f773170e252ad55550e5b8451fc99c626a01e9bfd4a6aebdc7f637d98a8988876040518080602001858152602001848152602001838152602001828103825286818151815260200191508051906020019080838360005b83811015610d0e578082015181840152602081019050610cf3565b50505050905090810190601f168015610d3b5780820380516001836020036101000a031916815260200191505b509550505050505060405180910390a450505050505050565b600160009054906101000a900473ffffffffffffffffffffffffffffffffffffffff1681565b60036020528060005260406000206000915090508060000154905081565b60005481565b60025481565b610dd06402540be400610dc26000548561124c90919063ffffffff16565b6112d290919063ffffffff16565b3414610e27576040517f08c379a000000000000000000000000000000000000000000000000000000000815260040180806020018281038252602981526020018061166e6029913960400191505060405180910390fd5b600073ffffffffffffffffffffffffffffffffffffffff168173ffffffffffffffffffffffffffffffffffffffff161415610eca576040517f08c379a000000000000000000000000000000000000000000000000000000000815260040180806020018281038252601b8152602001807f4f776e65722063616e6e6f74206861766520302061646472657373000000000081525060200191505060405180910390fd5b6000600360008373ffffffffffffffffffffffffffffffffffffffff1673ffffffffffffffffffffffffffffffffffffffff168152602001908152602001600020600001541415610f83576040517f08c379a000000000000000000000000000000000000000000000000000000000815260040180806020018281038252601f8152602001807f5f6f776e657220686173206e6f2072656465656d61626c6520546f6b656e730081525060200191505060405180910390fd5b600360008273ffffffffffffffffffffffffffffffffffffffff1673ffffffffffffffffffffffffffffffffffffffff1681526020019081526020016000206000015482111561101e576040517f08c379a00000000000000000000000000000000000000000000000000000000081526004018080602001828103825260348152602001806116096034913960400191505060405180910390fd5b61107382600360008473ffffffffffffffffffffffffffffffffffffffff1673ffffffffffffffffffffffffffffffffffffffff1681526020019081526020016000206000015461131c90919063ffffffff16565b600360008373ffffffffffffffffffffffffffffffffffffffff1673ffffffffffffffffffffffffffffffffffffffff16815260200190815260200160002060000181905550600160009054906101000a900473ffffffffffffffffffffffffffffffffffffffff1673ffffffffffffffffffffffffffffffffffffffff166335ebaeb88284306040518463ffffffff1660e01b8152600401808473ffffffffffffffffffffffffffffffffffffffff1681526020018381526020018273ffffffffffffffffffffffffffffffffffffffff1681526020019350505050602060405180830381600087803b15801561116a57600080fd5b505af115801561117e573d6000803e3d6000fd5b505050506040513d602081101561119457600080fd5b81019080805190602001909291905050506111fa576040517f08c379a000000000000000000000000000000000000000000000000000000000815260040180806020018281038252603181526020018061163d6031913960400191505060405180910390fd5b8073ffffffffffffffffffffffffffffffffffffffff167f60213c45c34d8b94e495fd5871fdea7a7511f659e884ea25a0c8843b7f98bfad836040518082815260200191505060405180910390a25050565b60008083141561125f57600090506112cc565b600082840290508284828161127057fe5b04146112c7576040517f08c379a00000000000000000000000000000000000000000000000000000000081526004018080602001828103825260218152602001806116976021913960400191505060405180910390fd5b809150505b92915050565b600061131483836040518060400160405280601a81526020017f536166654d6174683a206469766973696f6e206279207a65726f000000000000815250611366565b905092915050565b600061135e83836040518060400160405280601e81526020017f536166654d6174683a207375627472616374696f6e206f766572666c6f77000081525061142c565b905092915050565b60008083118290611412576040517f08c379a00000000000000000000000000000000000000000000000000000000081526004018080602001828103825283818151815260200191508051906020019080838360005b838110156113d75780820151818401526020810190506113bc565b50505050905090810190601f1680156114045780820380516001836020036101000a031916815260200191505b509250505060405180910390fd5b50600083858161141e57fe5b049050809150509392505050565b60008383111582906114d9576040517f08c379a00000000000000000000000000000000000000000000000000000000081526004018080602001828103825283818151815260200191508051906020019080838360005b8381101561149e578082015181840152602081019050611483565b50505050905090810190601f1680156114cb5780820380516001836020036101000a031916815260200191505b509250505060405180910390fd5b5060008385039050809150509392505050565b6040518060e0016040528060608152602001600073ffffffffffffffffffffffffffffffffffffffff16815260200160008152602001600073ffffffffffffffffffffffffffffffffffffffff16815260200160008152602001600073ffffffffffffffffffffffffffffffffffffffff168152602001600081525090565b828054600181600116156101000203166002900490600052602060002090601f016020900481019282601f106115ac57805160ff19168380011785556115da565b828001600101855582156115da579182015b828111156115d95782518255916020019190600101906115be565b5b5090506115e791906115eb565b5090565b5b808211156116045760008160009055506001016115ec565b509056fe43616e6e6f742072656464656d206d6f726520746f6b656e73207468616e207768696368206973206f776e656420746f20796f75756e61626c6520746f2063616c6c207472616e736665722066756e6374696f6e206f6620746f6b656e636f6e7472616374696e73696666696369656e742076616c75652073656e7420627920746865206d73672e73656e646572536166654d6174683a206d756c7469706c69636174696f6e206f766572666c6f77496e76616c6964206d757369634964656e7469666965722070726f766964656420696e20706172616d7350726f64756365722070657263656e74616765206d757374206265207a65726f207768656e2061646472657373206973207a65726f5772697465722070657263656e74616765206d757374206265207a65726f207768656e2061646472657373206973207a65726fa2646970667358221220560f0a7081b75506199a5bca4488d7fc4e473ad6ecf3f559d8761c841e17b0fc64736f6c63430007010033",
  "source": "// SPDX-License-Identifier: GPL-3.0\r\npragma solidity >=0.4.0 <0.8.0;\r\n\r\nimport '@openzeppelin/contracts/math/SafeMath.sol';\r\nimport './DappToken.sol';\r\n\r\ncontract MusicContract{\r\n    \r\n    using SafeMath for uint256;\r\n    uint256 public tokenPrice;\r\n    DappToken public tokenContract;\r\n    \r\n    constructor(DappToken _tokenContract, uint256 _tokenPrice) {\r\n        tokenContract = _tokenContract;\r\n        tokenPrice = _tokenPrice;\r\n    } \r\n    \r\n    struct Contract {\r\n        string musicIdentifier;\r\n        address singer;\r\n        uint256 singerPercentage;\r\n        address producer;\r\n        uint256 producerPercentage;\r\n        address writer;\r\n        uint256 writerPercenrage;\r\n    }\r\n    \r\n    struct account{\r\n        uint256 redeemableBalance;\r\n    }\r\n    \r\n    event contractInitialized(\r\n        string musicIdentifier,\r\n        address indexed singer,\r\n        uint256 singerPercentage,\r\n        address indexed producer,\r\n        uint256 producerPercentage,\r\n        address indexed writer,\r\n        uint256 writerPercenrage\r\n    );\r\n    \r\n    event RedeemTokens(\r\n        address indexed owner,\r\n        uint256 numberOfTokens\r\n    );\r\n    \r\n    uint public contractCount = 0;\r\n    //uint256 public totalRedeemableBalance;\r\n    mapping(address => account) public balanceOf;\r\n    mapping(string => Contract ) contractMusic;\r\n    \r\n    \r\n    //if all three are the same person than set the adresses and percentages to zero and then when dividing amount write checks accordingly\r\n    //musicIdentifier is used in mapping as musicIdentifier is same for music added in music.sol and contract addded in musicContract.sol\r\n    //musicIdentifier is also stored in struct as same artist, singer, writer can make anither song with another contract so to seperate those two I have added musicIdentifier yet again\r\n    \r\n    function setContract(string memory _musicIdentifer, address _singer, uint256 _sPer, address _producer ,uint256 _pPer, address _writer, uint256 _wPer) public {\r\n        //valid musicIdentifier\r\n        require(bytes(_musicIdentifer).length > 0, 'Invalid musicIdentifier provided in params');\r\n\r\n        //singer cannot be zero address\r\n        require(_singer != address(0), 'Singer address cannot be zero');\r\n\r\n        //singer percentage cannot be zero\r\n        require(_sPer != 0, 'Singer percentage cannot be zero');\r\n\r\n        //if addres of producre is zero the percentage must be zero\r\n        if(_producer == address(0)){\r\n            require(_pPer == 0, 'Producer percentage must be zero when address is zero');\r\n        }\r\n\r\n        //if addres of writer is zero the percentage must be zero\r\n        if(_writer == address(0)){\r\n            require(_wPer == 0, 'Writer percentage must be zero when address is zero');\r\n        }\r\n        contractCount  ++;\r\n        contractMusic[_musicIdentifer] = Contract(_musicIdentifer, _singer, _sPer, _producer, _pPer, _writer, _wPer);\r\n        emit contractInitialized(_musicIdentifer, _singer, _sPer, _producer, _pPer, _writer, _wPer);\r\n    }\r\n    \r\n    // function getRedeemableBalance(address _owner) public returns (uint256){\r\n    //     return balanceOf[_owner].redeemableBalance;\r\n    // }\r\n    \r\n    function storeAndAllocateTokens(uint256 _amount, string memory _musicIdentifer) public returns(bool){\r\n        \r\n        //get contract data \r\n        Contract memory music_Contract = contractMusic[_musicIdentifer];\r\n\r\n        //divide and allocate _amount\r\n        if(music_Contract.singerPercentage != 0){\r\n            balanceOf[music_Contract.singer].redeemableBalance = (_amount.mul(music_Contract.singerPercentage)).div(100);\r\n        }  \r\n        if(music_Contract.writerPercenrage != 0){\r\n            balanceOf[music_Contract.writer].redeemableBalance = (_amount.mul(music_Contract.writerPercenrage)).div(100);\r\n        }\r\n        if(music_Contract.producerPercentage != 0){\r\n            balanceOf[music_Contract.producer].redeemableBalance = (_amount.mul(music_Contract.producerPercentage)).div(100);\r\n        }\r\n\r\n        //update totalRedeemableBalance\r\n        //totalRedeemableBalance = totalRedeemableBalance.add(_amount);\r\n        //no need as balanceOf this contract will give the total reddemable amount\r\n        return true;\r\n    }\r\n    \r\n    function redeemTokens(uint256 _amountOfToken, address _owner) public payable{\r\n        //check msg.value sent by _owner\r\n        require(msg.value == (_amountOfToken.mul(tokenPrice)).div(10**10), 'insifficient value sent by the msg.sender');\r\n        \r\n        //check validity of address  _owner\r\n        require(_owner != address(0),'Owner cannot have 0 address');\r\n        \r\n        //check if _owner has redeemableBalance\r\n        require(balanceOf[_owner].redeemableBalance != 0,'_owner has no redeemable Tokens');\r\n        \r\n        //check if _amountOfToken is <= redeemableBalance\r\n        require(_amountOfToken <= balanceOf[_owner].redeemableBalance,'Cannot reddem more tokens than which is owned to you');\r\n        \r\n        //calculate remaining redeemabletokens and update user struct\r\n        balanceOf[_owner].redeemableBalance = balanceOf[_owner].redeemableBalance.sub(_amountOfToken);\r\n        //call transfer method of DappToken\r\n        require(tokenContract.tTransfer(_owner, _amountOfToken, address(this)), 'unable to call transfer function of tokencontract');\r\n        \r\n        //require(tokenContract.transfer(_owner, _amountOfToken), 'unable to call transfer function of tokencontract');\r\n\r\n        //emit event\r\n        emit RedeemTokens(_owner, _amountOfToken);\r\n    }\r\n}",
  "sourcePath": "D:\\apurba\\projects\\musicDapp\\src\\contracts\\MusicContract.sol",
  "compiler": {
    "name": "solc",
    "version": "0.7.1+commit.f4a555be.Emscripten.clang"
  },
  "schemaVersion": "3.0.23",
  "updatedAt": "2020-12-13T12:19:58.465Z",
  "networkType": "ethereum",
  "devdoc": {
    "kind": "dev",
    "methods": {},
    "version": 1
  },
  "userdoc": {
    "kind": "user",
    "methods": {},
    "version": 1
  }
}