{
  "contractName": "Musicc",
  "abi": [
    {
      "inputs": [
        {
          "internalType": "contract DappToken",
          "name": "_tokenContract",
          "type": "address"
        },
        {
          "internalType": "contract MusicContract",
          "name": "_musicContract",
          "type": "address"
        }
      ],
      "stateMutability": "nonpayable",
      "type": "constructor"
    },
    {
      "anonymous": false,
      "inputs": [
        {
          "indexed": false,
          "internalType": "string",
          "name": "musicName",
          "type": "string"
        },
        {
          "indexed": false,
          "internalType": "string",
          "name": "artistName",
          "type": "string"
        },
        {
          "indexed": false,
          "internalType": "uint256",
          "name": "price",
          "type": "uint256"
        },
        {
          "indexed": false,
          "internalType": "string",
          "name": "musicIdentifier",
          "type": "string"
        }
      ],
      "name": "MusicAdded",
      "type": "event"
    },
    {
      "anonymous": false,
      "inputs": [
        {
          "indexed": false,
          "internalType": "string",
          "name": "musicName",
          "type": "string"
        },
        {
          "indexed": false,
          "internalType": "string",
          "name": "artistName",
          "type": "string"
        },
        {
          "indexed": false,
          "internalType": "uint256",
          "name": "price",
          "type": "uint256"
        },
        {
          "indexed": false,
          "internalType": "string",
          "name": "musicIdentifier",
          "type": "string"
        }
      ],
      "name": "MusicPurchased",
      "type": "event"
    },
    {
      "anonymous": false,
      "inputs": [
        {
          "indexed": false,
          "internalType": "string",
          "name": "musicName",
          "type": "string"
        },
        {
          "indexed": false,
          "internalType": "string",
          "name": "artistName",
          "type": "string"
        },
        {
          "indexed": false,
          "internalType": "uint256",
          "name": "price",
          "type": "uint256"
        },
        {
          "indexed": false,
          "internalType": "string",
          "name": "musicIdentifier",
          "type": "string"
        }
      ],
      "name": "MusicTipped",
      "type": "event"
    },
    {
      "inputs": [
        {
          "internalType": "uint256",
          "name": "",
          "type": "uint256"
        }
      ],
      "name": "music",
      "outputs": [
        {
          "internalType": "string",
          "name": "musicName",
          "type": "string"
        },
        {
          "internalType": "string",
          "name": "artistName",
          "type": "string"
        },
        {
          "internalType": "uint256",
          "name": "price",
          "type": "uint256"
        },
        {
          "internalType": "string",
          "name": "musicIdentifier",
          "type": "string"
        }
      ],
      "stateMutability": "view",
      "type": "function",
      "constant": true
    },
    {
      "inputs": [],
      "name": "musicContract",
      "outputs": [
        {
          "internalType": "contract MusicContract",
          "name": "",
          "type": "address"
        }
      ],
      "stateMutability": "view",
      "type": "function",
      "constant": true
    },
    {
      "inputs": [],
      "name": "musicCount",
      "outputs": [
        {
          "internalType": "uint256",
          "name": "",
          "type": "uint256"
        }
      ],
      "stateMutability": "view",
      "type": "function",
      "constant": true
    },
    {
      "inputs": [],
      "name": "name",
      "outputs": [
        {
          "internalType": "string",
          "name": "",
          "type": "string"
        }
      ],
      "stateMutability": "view",
      "type": "function",
      "constant": true
    },
    {
      "inputs": [],
      "name": "tokenContract",
      "outputs": [
        {
          "internalType": "contract DappToken",
          "name": "",
          "type": "address"
        }
      ],
      "stateMutability": "view",
      "type": "function",
      "constant": true
    },
    {
      "inputs": [
        {
          "internalType": "string",
          "name": "_musicName",
          "type": "string"
        },
        {
          "internalType": "string",
          "name": "_artistName",
          "type": "string"
        },
        {
          "internalType": "uint256",
          "name": "_price",
          "type": "uint256"
        },
        {
          "internalType": "string",
          "name": "_musicIdentifier",
          "type": "string"
        }
      ],
      "name": "musicAdd",
      "outputs": [],
      "stateMutability": "nonpayable",
      "type": "function"
    },
    {
      "inputs": [
        {
          "internalType": "uint256",
          "name": "_musicCount",
          "type": "uint256"
        },
        {
          "internalType": "string",
          "name": "_musicIdentifier",
          "type": "string"
        }
      ],
      "name": "musicPurchase",
      "outputs": [],
      "stateMutability": "nonpayable",
      "type": "function"
    },
    {
      "inputs": [
        {
          "internalType": "uint256",
          "name": "_musicCount",
          "type": "uint256"
        },
        {
          "internalType": "string",
          "name": "_musicIdentifier",
          "type": "string"
        },
        {
          "internalType": "uint256",
          "name": "_tokenNumber",
          "type": "uint256"
        }
      ],
      "name": "musicTip",
      "outputs": [],
      "stateMutability": "nonpayable",
      "type": "function"
    }
  ],
  "bytecode": "0x608060405260006005553480156200001657600080fd5b5060405162001ebc38038062001ebc833981810160405260408110156200003c57600080fd5b81019080805190602001909291908051906020019092919050505033600160006101000a81548173ffffffffffffffffffffffffffffffffffffffff021916908373ffffffffffffffffffffffffffffffffffffffff16021790555081600260006101000a81548173ffffffffffffffffffffffffffffffffffffffff021916908373ffffffffffffffffffffffffffffffffffffffff16021790555080600360006101000a81548173ffffffffffffffffffffffffffffffffffffffff021916908373ffffffffffffffffffffffffffffffffffffffff1602179055506040518060400160405280601181526020017f4d75736963204d61726b6574706c616365000000000000000000000000000000815250600090805190602001906200016792919062000170565b50505062000216565b828054600181600116156101000203166002900490600052602060002090601f016020900481019282601f10620001b357805160ff1916838001178555620001e4565b82800160010185558215620001e4579182015b82811115620001e3578251825591602001919060010190620001c6565b5b509050620001f39190620001f7565b5090565b5b8082111562000212576000816000905550600101620001f8565b5090565b611c9680620002266000396000f3fe608060405234801561001057600080fd5b50600436106100885760003560e01c80636946a9aa1161005b5780636946a9aa1461035557806372898dd1146104245780639eb4766714610458578063eafb6664146105de57610088565b806306fdde031461008d5780631460345314610110578063294f98b81461030357806355a373d614610321575b600080fd5b6100956106a3565b6040518080602001828103825283818151815260200191508051906020019080838360005b838110156100d55780820151818401526020810190506100ba565b50505050905090810190601f1680156101025780820380516001836020036101000a031916815260200191505b509250505060405180910390f35b6103016004803603608081101561012657600080fd5b810190808035906020019064010000000081111561014357600080fd5b82018360208201111561015557600080fd5b8035906020019184600183028401116401000000008311171561017757600080fd5b91908080601f016020809104026020016040519081016040528093929190818152602001838380828437600081840152601f19601f820116905080830192505050505050509192919290803590602001906401000000008111156101da57600080fd5b8201836020820111156101ec57600080fd5b8035906020019184600183028401116401000000008311171561020e57600080fd5b91908080601f016020809104026020016040519081016040528093929190818152602001838380828437600081840152601f19601f820116905080830192505050505050509192919290803590602001909291908035906020019064010000000081111561027b57600080fd5b82018360208201111561028d57600080fd5b803590602001918460018302840111640100000000831117156102af57600080fd5b91908080601f016020809104026020016040519081016040528093929190818152602001838380828437600081840152601f19601f820116905080830192505050505050509192919290505050610741565b005b61030b61099a565b6040518082815260200191505060405180910390f35b6103296109a0565b604051808273ffffffffffffffffffffffffffffffffffffffff16815260200191505060405180910390f35b6104226004803603606081101561036b57600080fd5b81019080803590602001909291908035906020019064010000000081111561039257600080fd5b8201836020820111156103a457600080fd5b803590602001918460018302840111640100000000831117156103c657600080fd5b91908080601f016020809104026020016040519081016040528093929190818152602001838380828437600081840152601f19601f820116905080830192505050505050509192919290803590602001909291905050506109c6565b005b61042c61115f565b604051808273ffffffffffffffffffffffffffffffffffffffff16815260200191505060405180910390f35b6104846004803603602081101561046e57600080fd5b8101908080359060200190929190505050611185565b60405180806020018060200185815260200180602001848103845288818151815260200191508051906020019080838360005b838110156104d25780820151818401526020810190506104b7565b50505050905090810190601f1680156104ff5780820380516001836020036101000a031916815260200191505b50848103835287818151815260200191508051906020019080838360005b8381101561053857808201518184015260208101905061051d565b50505050905090810190601f1680156105655780820380516001836020036101000a031916815260200191505b50848103825285818151815260200191508051906020019080838360005b8381101561059e578082015181840152602081019050610583565b50505050905090810190601f1680156105cb5780820380516001836020036101000a031916815260200191505b5097505050505050505060405180910390f35b6106a1600480360360408110156105f457600080fd5b81019080803590602001909291908035906020019064010000000081111561061b57600080fd5b82018360208201111561062d57600080fd5b8035906020019184600183028401116401000000008311171561064f57600080fd5b91908080601f016020809104026020016040519081016040528093929190818152602001838380828437600081840152601f19601f82011690508083019250505050505050919291929050505061137d565b005b60008054600181600116156101000203166002900480601f0160208091040260200160405190810160405280929190818152602001828054600181600116156101000203166002900480156107395780601f1061070e57610100808354040283529160200191610739565b820191906000526020600020905b81548152906001019060200180831161071c57829003601f168201915b505050505081565b600084511161074f57600080fd5b600083511161075d57600080fd5b6000821161076a57600080fd5b60056000815480929190600101919050555060405180608001604052808581526020018481526020018381526020018281525060046000600554815260200190815260200160002060008201518160000190805190602001906107ce929190611b25565b5060208201518160010190805190602001906107eb929190611b25565b50604082015181600201556060820151816003019080519060200190610812929190611b25565b509050507fd21446b3dccf116c665fe7910eebd07d3f63e724abd735f970d32ff80fca68898484848460405180806020018060200185815260200180602001848103845288818151815260200191508051906020019080838360005b8381101561088957808201518184015260208101905061086e565b50505050905090810190601f1680156108b65780820380516001836020036101000a031916815260200191505b50848103835287818151815260200191508051906020019080838360005b838110156108ef5780820151818401526020810190506108d4565b50505050905090810190601f16801561091c5780820380516001836020036101000a031916815260200191505b50848103825285818151815260200191508051906020019080838360005b8381101561095557808201518184015260208101905061093a565b50505050905090810190601f1680156109825780820380516001836020036101000a031916815260200191505b5097505050505050505060405180910390a150505050565b60055481565b600260009054906101000a900473ffffffffffffffffffffffffffffffffffffffff1681565b6109ce611ba5565b60046000858152602001908152602001600020604051806080016040529081600082018054600181600116156101000203166002900480601f016020809104026020016040519081016040528092919081815260200182805460018160011615610100020316600290048015610a855780601f10610a5a57610100808354040283529160200191610a85565b820191906000526020600020905b815481529060010190602001808311610a6857829003601f168201915b50505050508152602001600182018054600181600116156101000203166002900480601f016020809104026020016040519081016040528092919081815260200182805460018160011615610100020316600290048015610b275780601f10610afc57610100808354040283529160200191610b27565b820191906000526020600020905b815481529060010190602001808311610b0a57829003601f168201915b5050505050815260200160028201548152602001600382018054600181600116156101000203166002900480601f016020809104026020016040519081016040528092919081815260200182805460018160011615610100020316600290048015610bd35780601f10610ba857610100808354040283529160200191610bd3565b820191906000526020600020905b815481529060010190602001808311610bb657829003601f168201915b505050505081525050905081600260009054906101000a900473ffffffffffffffffffffffffffffffffffffffff1673ffffffffffffffffffffffffffffffffffffffff166370a08231336040518263ffffffff1660e01b8152600401808273ffffffffffffffffffffffffffffffffffffffff16815260200191505060206040518083038186803b158015610c6857600080fd5b505afa158015610c7c573d6000803e3d6000fd5b505050506040513d6020811015610c9257600080fd5b81019080805190602001909291905050501015610cfa576040517f08c379a0000000000000000000000000000000000000000000000000000000008152600401808060200182810382526021815260200180611beb6021913960400191505060405180910390fd5b600360009054906101000a900473ffffffffffffffffffffffffffffffffffffffff1673ffffffffffffffffffffffffffffffffffffffff1663234fac1683856040518363ffffffff1660e01b81526004018083815260200180602001828103825283818151815260200191508051906020019080838360005b83811015610d8f578082015181840152602081019050610d74565b50505050905090810190601f168015610dbc5780820380516001836020036101000a031916815260200191505b509350505050602060405180830381600087803b158015610ddc57600080fd5b505af1158015610df0573d6000803e3d6000fd5b505050506040513d6020811015610e0657600080fd5b8101908080519060200190929190505050610e6c576040517f08c379a0000000000000000000000000000000000000000000000000000000008152600401808060200182810382526024815260200180611c3d6024913960400191505060405180910390fd5b600260009054906101000a900473ffffffffffffffffffffffffffffffffffffffff1673ffffffffffffffffffffffffffffffffffffffff166335ebaeb8600360009054906101000a900473ffffffffffffffffffffffffffffffffffffffff1684336040518463ffffffff1660e01b8152600401808473ffffffffffffffffffffffffffffffffffffffff1681526020018381526020018273ffffffffffffffffffffffffffffffffffffffff1681526020019350505050602060405180830381600087803b158015610f3f57600080fd5b505af1158015610f53573d6000803e3d6000fd5b505050506040513d6020811015610f6957600080fd5b8101908080519060200190929190505050610fcf576040517f08c379a0000000000000000000000000000000000000000000000000000000008152600401808060200182810382526031815260200180611c0c6031913960400191505060405180910390fd5b7f20a337e5054b6fb96713f935b3f6925233f64de4b779d32915c98827a15a66708160000151826020015184846060015160405180806020018060200185815260200180602001848103845288818151815260200191508051906020019080838360005b8381101561104e578082015181840152602081019050611033565b50505050905090810190601f16801561107b5780820380516001836020036101000a031916815260200191505b50848103835287818151815260200191508051906020019080838360005b838110156110b4578082015181840152602081019050611099565b50505050905090810190601f1680156110e15780820380516001836020036101000a031916815260200191505b50848103825285818151815260200191508051906020019080838360005b8381101561111a5780820151818401526020810190506110ff565b50505050905090810190601f1680156111475780820380516001836020036101000a031916815260200191505b5097505050505050505060405180910390a150505050565b600360009054906101000a900473ffffffffffffffffffffffffffffffffffffffff1681565b6004602052806000526040600020600091509050806000018054600181600116156101000203166002900480601f0160208091040260200160405190810160405280929190818152602001828054600181600116156101000203166002900480156112315780601f1061120657610100808354040283529160200191611231565b820191906000526020600020905b81548152906001019060200180831161121457829003601f168201915b505050505090806001018054600181600116156101000203166002900480601f0160208091040260200160405190810160405280929190818152602001828054600181600116156101000203166002900480156112cf5780601f106112a4576101008083540402835291602001916112cf565b820191906000526020600020905b8154815290600101906020018083116112b257829003601f168201915b505050505090806002015490806003018054600181600116156101000203166002900480601f0160208091040260200160405190810160405280929190818152602001828054600181600116156101000203166002900480156113735780601f1061134857610100808354040283529160200191611373565b820191906000526020600020905b81548152906001019060200180831161135657829003601f168201915b5050505050905084565b611385611ba5565b60046000848152602001908152602001600020604051806080016040529081600082018054600181600116156101000203166002900480601f01602080910402602001604051908101604052809291908181526020018280546001816001161561010002031660029004801561143c5780601f106114115761010080835404028352916020019161143c565b820191906000526020600020905b81548152906001019060200180831161141f57829003601f168201915b50505050508152602001600182018054600181600116156101000203166002900480601f0160208091040260200160405190810160405280929190818152602001828054600181600116156101000203166002900480156114de5780601f106114b3576101008083540402835291602001916114de565b820191906000526020600020905b8154815290600101906020018083116114c157829003601f168201915b5050505050815260200160028201548152602001600382018054600181600116156101000203166002900480601f01602080910402602001604051908101604052809291908181526020018280546001816001161561010002031660029004801561158a5780601f1061155f5761010080835404028352916020019161158a565b820191906000526020600020905b81548152906001019060200180831161156d57829003601f168201915b50505050508152505090508060400151600260009054906101000a900473ffffffffffffffffffffffffffffffffffffffff1673ffffffffffffffffffffffffffffffffffffffff166370a08231336040518263ffffffff1660e01b8152600401808273ffffffffffffffffffffffffffffffffffffffff16815260200191505060206040518083038186803b15801561162357600080fd5b505afa158015611637573d6000803e3d6000fd5b505050506040513d602081101561164d57600080fd5b810190808051906020019092919050505010156116b5576040517f08c379a0000000000000000000000000000000000000000000000000000000008152600401808060200182810382526021815260200180611beb6021913960400191505060405180910390fd5b600360009054906101000a900473ffffffffffffffffffffffffffffffffffffffff1673ffffffffffffffffffffffffffffffffffffffff1663234fac168260400151846040518363ffffffff1660e01b81526004018083815260200180602001828103825283818151815260200191508051906020019080838360005b8381101561174e578082015181840152602081019050611733565b50505050905090810190601f16801561177b5780820380516001836020036101000a031916815260200191505b509350505050602060405180830381600087803b15801561179b57600080fd5b505af11580156117af573d6000803e3d6000fd5b505050506040513d60208110156117c557600080fd5b810190808051906020019092919050505061182b576040517f08c379a0000000000000000000000000000000000000000000000000000000008152600401808060200182810382526024815260200180611c3d6024913960400191505060405180910390fd5b600260009054906101000a900473ffffffffffffffffffffffffffffffffffffffff1673ffffffffffffffffffffffffffffffffffffffff166335ebaeb8600360009054906101000a900473ffffffffffffffffffffffffffffffffffffffff168360400151336040518463ffffffff1660e01b8152600401808473ffffffffffffffffffffffffffffffffffffffff1681526020018381526020018273ffffffffffffffffffffffffffffffffffffffff1681526020019350505050602060405180830381600087803b15801561190257600080fd5b505af1158015611916573d6000803e3d6000fd5b505050506040513d602081101561192c57600080fd5b8101908080519060200190929190505050611992576040517f08c379a0000000000000000000000000000000000000000000000000000000008152600401808060200182810382526031815260200180611c0c6031913960400191505060405180910390fd5b7f30128d40f861598e08a17fe91b5423bc5d9b8581fd1ec5eab2d8c882f28407c7816000015182602001518360400151846060015160405180806020018060200185815260200180602001848103845288818151815260200191508051906020019080838360005b83811015611a155780820151818401526020810190506119fa565b50505050905090810190601f168015611a425780820380516001836020036101000a031916815260200191505b50848103835287818151815260200191508051906020019080838360005b83811015611a7b578082015181840152602081019050611a60565b50505050905090810190601f168015611aa85780820380516001836020036101000a031916815260200191505b50848103825285818151815260200191508051906020019080838360005b83811015611ae1578082015181840152602081019050611ac6565b50505050905090810190601f168015611b0e5780820380516001836020036101000a031916815260200191505b5097505050505050505060405180910390a1505050565b828054600181600116156101000203166002900490600052602060002090601f016020900481019282601f10611b6657805160ff1916838001178555611b94565b82800160010185558215611b94579182015b82811115611b93578251825591602001919060010190611b78565b5b509050611ba19190611bcd565b5090565b6040518060800160405280606081526020016060815260200160008152602001606081525090565b5b80821115611be6576000816000905550600101611bce565b509056fe6d73672e73656e6465722068617320696e73756666696369656e7420746f6b656e756e61626c6520746f2063616c6c207472616e73666572206675636e74696f6e206f6620746f6b656e636f6e7472616374756e61626c6520746f2063616c6c2073746f7265416e64416c6c6f63617465546f6b656ea26469706673582212206137671a032bea6dfc055264249efdee2a63454aa1f77af8b0e8f1130cde439664736f6c63430007010033",
  "source": "// SPDX-License-Identifier: GPL-3.0\r\npragma solidity >=0.4.0 <0.8.0;\r\n\r\nimport './DappToken.sol';\r\nimport './MusicContract.sol';\r\n\r\ncontract Musicc {\r\n    \r\n    string public name;\r\n    address admin;\r\n    DappToken public tokenContract;\r\n    MusicContract public musicContract;\r\n    mapping(uint => Music) public music;\r\n    uint public  musicCount = 0;\r\n\r\n    struct Music\r\n    {\r\n        string musicName;\r\n        string artistName;\r\n        uint price;\r\n        string musicIdentifier;\r\n    }\r\n\r\n    //events are created to make sure that receipts are obtained after a txn is completed.\r\n    event MusicAdded\r\n    (\r\n        string musicName,\r\n        string artistName,\r\n        uint price,\r\n        string musicIdentifier\r\n    );\r\n\r\n     event MusicPurchased\r\n    (\r\n        string musicName,\r\n        string artistName,\r\n        uint price,\r\n        string musicIdentifier\r\n    );\r\n\r\n    event MusicTipped\r\n    (\r\n        string musicName,\r\n        string artistName,\r\n        uint price,\r\n        string musicIdentifier\r\n    );\r\n    \r\n    constructor(DappToken _tokenContract, MusicContract _musicContract) {\r\n        admin = msg.sender;\r\n        tokenContract = _tokenContract;\r\n        musicContract = _musicContract;\r\n        name = \"Music Marketplace\";\r\n    } \r\n\r\n    function musicAdd(string memory _musicName, string memory _artistName, uint _price, string memory _musicIdentifier) public\r\n    {\r\n        //Require valid name\r\n        require(bytes(_musicName).length > 0);\r\n        require(bytes(_artistName).length > 0);\r\n\r\n        //Require valid price\r\n        require(_price > 0);\r\n        musicCount ++;\r\n        //Create the product\r\n        music[musicCount] = Music(_musicName, _artistName, _price,  _musicIdentifier);\r\n\r\n        //Trigger an event\r\n        emit MusicAdded(_musicName, _artistName, _price,  _musicIdentifier);\r\n    }\r\n\r\n    function musicPurchase(uint256 _musicCount, string memory _musicIdentifier) public \r\n    {\r\n        //fetch product\r\n        //memory space is being used to store copy of said product i.e copy of products[_id]\r\n        Music memory _product = music[_musicCount];\r\n\r\n        //check is there is enough token of the msg.sender\r\n        require(tokenContract.balanceOf(msg.sender) >= _product.price, 'msg.sender has insufficient token');\r\n\r\n        //call storeAndAllocateTokens from musiccontract\r\n        require(musicContract.storeAndAllocateTokens(_product.price, _musicIdentifier), 'unable to call storeAndAllocateToken');\r\n\r\n        //trasnfer the total token to musicContract\r\n        require(tokenContract.tTransfer(address(musicContract), _product.price, msg.sender), 'unable to call transfer fucntion of tokencontract');\r\n       \r\n        //trigger an event \r\n        emit MusicPurchased(_product.musicName, _product.artistName, _product.price, _product.musicIdentifier);\r\n    } \r\n\r\n    function musicTip(uint256 _musicCount, string memory _musicIdentifier, uint256 _tokenNumber) public \r\n    {\r\n        //fetch product\r\n        Music memory _product = music[_musicCount];\r\n        \r\n        //check is there is enough token of the msg.sender\r\n        require(tokenContract.balanceOf(msg.sender) >= _tokenNumber, 'msg.sender has insufficient token');\r\n\r\n        //call storeAndAllocateTokens from musiccontract\r\n        require(musicContract.storeAndAllocateTokens(_tokenNumber, _musicIdentifier), 'unable to call storeAndAllocateToken');\r\n\r\n        //pay the seller by tranfering token\r\n        require(tokenContract.tTransfer(address(musicContract), _tokenNumber, msg.sender), 'unable to call transfer fucntion of tokencontract');\r\n        \r\n        //trigger an event\r\n        emit MusicTipped(_product.musicName, _product.artistName, _tokenNumber, _product.musicIdentifier);\r\n    }\r\n}",
  "sourcePath": "D:\\apurba\\projects\\MusicDapp1\\musicDapp\\src\\contracts\\Music.sol",
  "compiler": {
    "name": "solc",
    "version": "0.7.1+commit.f4a555be.Emscripten.clang"
  },
  "schemaVersion": "3.0.23",
  "updatedAt": "2021-02-17T09:31:28.191Z",
  "networkType": "ethereum",
  "devdoc": {
    "kind": "dev",
    "methods": {},
    "version": 1
  },
  "userdoc": {
    "kind": "user",
    "methods": {},
    "version": 1
  }
}