{
  "contractName": "Musicc",
  "abi": [
    {
      "inputs": [
        {
          "internalType": "contract DappToken",
          "name": "_tokenContract",
          "type": "address"
        },
        {
          "internalType": "contract MusicContract",
          "name": "_musicContract",
          "type": "address"
        }
      ],
      "stateMutability": "nonpayable",
      "type": "constructor"
    },
    {
      "anonymous": false,
      "inputs": [
        {
          "indexed": false,
          "internalType": "string",
          "name": "musicName",
          "type": "string"
        },
        {
          "indexed": false,
          "internalType": "string",
          "name": "artistName",
          "type": "string"
        },
        {
          "indexed": false,
          "internalType": "uint256",
          "name": "price",
          "type": "uint256"
        },
        {
          "indexed": false,
          "internalType": "string",
          "name": "musicIdentifier",
          "type": "string"
        },
        {
          "indexed": false,
          "internalType": "string",
          "name": "aesKey",
          "type": "string"
        }
      ],
      "name": "MusicAdded",
      "type": "event"
    },
    {
      "anonymous": false,
      "inputs": [
        {
          "indexed": false,
          "internalType": "string",
          "name": "musicName",
          "type": "string"
        },
        {
          "indexed": false,
          "internalType": "string",
          "name": "artistName",
          "type": "string"
        },
        {
          "indexed": false,
          "internalType": "uint256",
          "name": "price",
          "type": "uint256"
        },
        {
          "indexed": false,
          "internalType": "string",
          "name": "musicIdentifier",
          "type": "string"
        },
        {
          "indexed": false,
          "internalType": "string",
          "name": "aesKey",
          "type": "string"
        }
      ],
      "name": "MusicPurchased",
      "type": "event"
    },
    {
      "anonymous": false,
      "inputs": [
        {
          "indexed": false,
          "internalType": "string",
          "name": "musicName",
          "type": "string"
        },
        {
          "indexed": false,
          "internalType": "string",
          "name": "artistName",
          "type": "string"
        },
        {
          "indexed": false,
          "internalType": "uint256",
          "name": "price",
          "type": "uint256"
        },
        {
          "indexed": false,
          "internalType": "string",
          "name": "musicIdentifier",
          "type": "string"
        },
        {
          "indexed": false,
          "internalType": "string",
          "name": "aesKey",
          "type": "string"
        }
      ],
      "name": "MusicTipped",
      "type": "event"
    },
    {
      "inputs": [],
      "name": "musicContract",
      "outputs": [
        {
          "internalType": "contract MusicContract",
          "name": "",
          "type": "address"
        }
      ],
      "stateMutability": "view",
      "type": "function",
      "constant": true
    },
    {
      "inputs": [],
      "name": "name",
      "outputs": [
        {
          "internalType": "string",
          "name": "",
          "type": "string"
        }
      ],
      "stateMutability": "view",
      "type": "function",
      "constant": true
    },
    {
      "inputs": [],
      "name": "tokenContract",
      "outputs": [
        {
          "internalType": "contract DappToken",
          "name": "",
          "type": "address"
        }
      ],
      "stateMutability": "view",
      "type": "function",
      "constant": true
    },
    {
      "inputs": [
        {
          "internalType": "string",
          "name": "_musicName",
          "type": "string"
        },
        {
          "internalType": "string",
          "name": "_artistName",
          "type": "string"
        },
        {
          "internalType": "uint256",
          "name": "_price",
          "type": "uint256"
        },
        {
          "internalType": "string",
          "name": "_musicIdentifier",
          "type": "string"
        },
        {
          "internalType": "string",
          "name": "_aesKey",
          "type": "string"
        }
      ],
      "name": "musicAdd",
      "outputs": [],
      "stateMutability": "nonpayable",
      "type": "function"
    },
    {
      "inputs": [
        {
          "internalType": "string",
          "name": "_musicIdentifier",
          "type": "string"
        }
      ],
      "name": "musicPurchase",
      "outputs": [],
      "stateMutability": "nonpayable",
      "type": "function"
    },
    {
      "inputs": [
        {
          "internalType": "string",
          "name": "_musicIdentifier",
          "type": "string"
        },
        {
          "internalType": "uint256",
          "name": "_tokenNumber",
          "type": "uint256"
        }
      ],
      "name": "musicTip",
      "outputs": [],
      "stateMutability": "nonpayable",
      "type": "function"
    }
  ],
  "bytecode": "0x60806040523480156200001157600080fd5b5060405162001f2238038062001f22833981810160405260408110156200003757600080fd5b81019080805190602001909291908051906020019092919050505033600160006101000a81548173ffffffffffffffffffffffffffffffffffffffff021916908373ffffffffffffffffffffffffffffffffffffffff16021790555081600260006101000a81548173ffffffffffffffffffffffffffffffffffffffff021916908373ffffffffffffffffffffffffffffffffffffffff16021790555080600360006101000a81548173ffffffffffffffffffffffffffffffffffffffff021916908373ffffffffffffffffffffffffffffffffffffffff1602179055506040518060400160405280601181526020017f4d75736963204d61726b6574706c61636500000000000000000000000000000081525060009080519060200190620001629291906200016b565b50505062000211565b828054600181600116156101000203166002900490600052602060002090601f016020900481019282601f10620001ae57805160ff1916838001178555620001df565b82800160010185558215620001df579182015b82811115620001de578251825591602001919060010190620001c1565b5b509050620001ee9190620001f2565b5090565b5b808211156200020d576000816000905550600101620001f3565b5090565b611d0180620002216000396000f3fe608060405234801561001057600080fd5b50600436106100625760003560e01c806306fdde031461006757806355a373d6146100ea5780635994911e1461011e57806372898dd1146101d9578063cea509a61461020d578063d600430314610497575b600080fd5b61006f61055c565b6040518080602001828103825283818151815260200191508051906020019080838360005b838110156100af578082015181840152602081019050610094565b50505050905090810190601f1680156100dc5780820380516001836020036101000a031916815260200191505b509250505060405180910390f35b6100f26105fa565b604051808273ffffffffffffffffffffffffffffffffffffffff16815260200191505060405180910390f35b6101d76004803603602081101561013457600080fd5b810190808035906020019064010000000081111561015157600080fd5b82018360208201111561016357600080fd5b8035906020019184600183028401116401000000008311171561018557600080fd5b91908080601f016020809104026020016040519081016040528093929190818152602001838380828437600081840152601f19601f820116905080830192505050505050509192919290505050610620565b005b6101e1610f36565b604051808273ffffffffffffffffffffffffffffffffffffffff16815260200191505060405180910390f35b610495600480360360a081101561022357600080fd5b810190808035906020019064010000000081111561024057600080fd5b82018360208201111561025257600080fd5b8035906020019184600183028401116401000000008311171561027457600080fd5b91908080601f016020809104026020016040519081016040528093929190818152602001838380828437600081840152601f19601f820116905080830192505050505050509192919290803590602001906401000000008111156102d757600080fd5b8201836020820111156102e957600080fd5b8035906020019184600183028401116401000000008311171561030b57600080fd5b91908080601f016020809104026020016040519081016040528093929190818152602001838380828437600081840152601f19601f820116905080830192505050505050509192919290803590602001909291908035906020019064010000000081111561037857600080fd5b82018360208201111561038a57600080fd5b803590602001918460018302840111640100000000831117156103ac57600080fd5b91908080601f016020809104026020016040519081016040528093929190818152602001838380828437600081840152601f19601f8201169050808301925050505050505091929192908035906020019064010000000081111561040f57600080fd5b82018360208201111561042157600080fd5b8035906020019184600183028401116401000000008311171561044357600080fd5b91908080601f016020809104026020016040519081016040528093929190818152602001838380828437600081840152601f19601f820116905080830192505050505050509192919290505050610f5c565b005b61055a600480360360408110156104ad57600080fd5b81019080803590602001906401000000008111156104ca57600080fd5b8201836020820111156104dc57600080fd5b803590602001918460018302840111640100000000831117156104fe57600080fd5b91908080601f016020809104026020016040519081016040528093929190818152602001838380828437600081840152601f19601f82011690508083019250505050505050919291929080359060200190929190505050611288565b005b60008054600181600116156101000203166002900480601f0160208091040260200160405190810160405280929190818152602001828054600181600116156101000203166002900480156105f25780601f106105c7576101008083540402835291602001916105f2565b820191906000526020600020905b8154815290600101906020018083116105d557829003601f168201915b505050505081565b600260009054906101000a900473ffffffffffffffffffffffffffffffffffffffff1681565b610628611b89565b6004826040518082805190602001908083835b6020831061065e578051825260208201915060208101905060208303925061063b565b6001836020036101000a03801982511681845116808217855250505050505090500191505090815260200160405180910390206040518060a0016040529081600082018054600181600116156101000203166002900480601f0160208091040260200160405190810160405280929190818152602001828054600181600116156101000203166002900480156107355780601f1061070a57610100808354040283529160200191610735565b820191906000526020600020905b81548152906001019060200180831161071857829003601f168201915b50505050508152602001600182018054600181600116156101000203166002900480601f0160208091040260200160405190810160405280929190818152602001828054600181600116156101000203166002900480156107d75780601f106107ac576101008083540402835291602001916107d7565b820191906000526020600020905b8154815290600101906020018083116107ba57829003601f168201915b5050505050815260200160028201548152602001600382018054600181600116156101000203166002900480601f0160208091040260200160405190810160405280929190818152602001828054600181600116156101000203166002900480156108835780601f1061085857610100808354040283529160200191610883565b820191906000526020600020905b81548152906001019060200180831161086657829003601f168201915b50505050508152602001600482018054600181600116156101000203166002900480601f0160208091040260200160405190810160405280929190818152602001828054600181600116156101000203166002900480156109255780601f106108fa57610100808354040283529160200191610925565b820191906000526020600020905b81548152906001019060200180831161090857829003601f168201915b50505050508152505090508060400151600260009054906101000a900473ffffffffffffffffffffffffffffffffffffffff1673ffffffffffffffffffffffffffffffffffffffff166370a08231336040518263ffffffff1660e01b8152600401808273ffffffffffffffffffffffffffffffffffffffff16815260200191505060206040518083038186803b1580156109be57600080fd5b505afa1580156109d2573d6000803e3d6000fd5b505050506040513d60208110156109e857600080fd5b81019080805190602001909291905050501015610a50576040517f08c379a0000000000000000000000000000000000000000000000000000000008152600401808060200182810382526021815260200180611c566021913960400191505060405180910390fd5b600081604001519050600360009054906101000a900473ffffffffffffffffffffffffffffffffffffffff1673ffffffffffffffffffffffffffffffffffffffff1663234fac168360400151856040518363ffffffff1660e01b81526004018083815260200180602001828103825283818151815260200191508051906020019080838360005b83811015610af2578082015181840152602081019050610ad7565b50505050905090810190601f168015610b1f5780820380516001836020036101000a031916815260200191505b509350505050602060405180830381600087803b158015610b3f57600080fd5b505af1158015610b53573d6000803e3d6000fd5b505050506040513d6020811015610b6957600080fd5b8101908080519060200190929190505050610bcf576040517f08c379a0000000000000000000000000000000000000000000000000000000008152600401808060200182810382526024815260200180611ca86024913960400191505060405180910390fd5b600260009054906101000a900473ffffffffffffffffffffffffffffffffffffffff1673ffffffffffffffffffffffffffffffffffffffff166335ebaeb8600360009054906101000a900473ffffffffffffffffffffffffffffffffffffffff1683336040518463ffffffff1660e01b8152600401808473ffffffffffffffffffffffffffffffffffffffff1681526020018381526020018273ffffffffffffffffffffffffffffffffffffffff1681526020019350505050602060405180830381600087803b158015610ca257600080fd5b505af1158015610cb6573d6000803e3d6000fd5b505050506040513d6020811015610ccc57600080fd5b8101908080519060200190929190505050610d32576040517f08c379a0000000000000000000000000000000000000000000000000000000008152600401808060200182810382526031815260200180611c776031913960400191505060405180910390fd5b7f7e9e3101110305e30d2b77b4a91dd54ec721b3e1c217d42139941ffd17c04e6682600001518360200151846040015185606001518660800151604051808060200180602001868152602001806020018060200185810385528a818151815260200191508051906020019080838360005b83811015610dbe578082015181840152602081019050610da3565b50505050905090810190601f168015610deb5780820380516001836020036101000a031916815260200191505b50858103845289818151815260200191508051906020019080838360005b83811015610e24578082015181840152602081019050610e09565b50505050905090810190601f168015610e515780820380516001836020036101000a031916815260200191505b50858103835287818151815260200191508051906020019080838360005b83811015610e8a578082015181840152602081019050610e6f565b50505050905090810190601f168015610eb75780820380516001836020036101000a031916815260200191505b50858103825286818151815260200191508051906020019080838360005b83811015610ef0578082015181840152602081019050610ed5565b50505050905090810190601f168015610f1d5780820380516001836020036101000a031916815260200191505b50995050505050505050505060405180910390a1505050565b600360009054906101000a900473ffffffffffffffffffffffffffffffffffffffff1681565b6000855111610f6a57600080fd5b6000845111610f7857600080fd5b60008311610f8557600080fd5b6040518060a00160405280868152602001858152602001848152602001838152602001828152506004836040518082805190602001908083835b60208310610fe25780518252602082019150602081019050602083039250610fbf565b6001836020036101000a03801982511681845116808217855250505050505090500191505090815260200160405180910390206000820151816000019080519060200190611031929190611bb8565b50602082015181600101908051906020019061104e929190611bb8565b50604082015181600201556060820151816003019080519060200190611075929190611bb8565b506080820151816004019080519060200190611092929190611bb8565b509050507f09922f0b4245d6713e8f659fa3f4b027973d7a00cce980ac20c69d8b5801e07b8585858585604051808060200180602001868152602001806020018060200185810385528a818151815260200191508051906020019080838360005b8381101561110e5780820151818401526020810190506110f3565b50505050905090810190601f16801561113b5780820380516001836020036101000a031916815260200191505b50858103845289818151815260200191508051906020019080838360005b83811015611174578082015181840152602081019050611159565b50505050905090810190601f1680156111a15780820380516001836020036101000a031916815260200191505b50858103835287818151815260200191508051906020019080838360005b838110156111da5780820151818401526020810190506111bf565b50505050905090810190601f1680156112075780820380516001836020036101000a031916815260200191505b50858103825286818151815260200191508051906020019080838360005b83811015611240578082015181840152602081019050611225565b50505050905090810190601f16801561126d5780820380516001836020036101000a031916815260200191505b50995050505050505050505060405180910390a15050505050565b611290611b89565b6004836040518082805190602001908083835b602083106112c657805182526020820191506020810190506020830392506112a3565b6001836020036101000a03801982511681845116808217855250505050505090500191505090815260200160405180910390206040518060a0016040529081600082018054600181600116156101000203166002900480601f01602080910402602001604051908101604052809291908181526020018280546001816001161561010002031660029004801561139d5780601f106113725761010080835404028352916020019161139d565b820191906000526020600020905b81548152906001019060200180831161138057829003601f168201915b50505050508152602001600182018054600181600116156101000203166002900480601f01602080910402602001604051908101604052809291908181526020018280546001816001161561010002031660029004801561143f5780601f106114145761010080835404028352916020019161143f565b820191906000526020600020905b81548152906001019060200180831161142257829003601f168201915b5050505050815260200160028201548152602001600382018054600181600116156101000203166002900480601f0160208091040260200160405190810160405280929190818152602001828054600181600116156101000203166002900480156114eb5780601f106114c0576101008083540402835291602001916114eb565b820191906000526020600020905b8154815290600101906020018083116114ce57829003601f168201915b50505050508152602001600482018054600181600116156101000203166002900480601f01602080910402602001604051908101604052809291908181526020018280546001816001161561010002031660029004801561158d5780601f106115625761010080835404028352916020019161158d565b820191906000526020600020905b81548152906001019060200180831161157057829003601f168201915b505050505081525050905081600260009054906101000a900473ffffffffffffffffffffffffffffffffffffffff1673ffffffffffffffffffffffffffffffffffffffff166370a08231336040518263ffffffff1660e01b8152600401808273ffffffffffffffffffffffffffffffffffffffff16815260200191505060206040518083038186803b15801561162257600080fd5b505afa158015611636573d6000803e3d6000fd5b505050506040513d602081101561164c57600080fd5b810190808051906020019092919050505010156116b4576040517f08c379a0000000000000000000000000000000000000000000000000000000008152600401808060200182810382526021815260200180611c566021913960400191505060405180910390fd5b600360009054906101000a900473ffffffffffffffffffffffffffffffffffffffff1673ffffffffffffffffffffffffffffffffffffffff1663234fac1683856040518363ffffffff1660e01b81526004018083815260200180602001828103825283818151815260200191508051906020019080838360005b8381101561174957808201518184015260208101905061172e565b50505050905090810190601f1680156117765780820380516001836020036101000a031916815260200191505b509350505050602060405180830381600087803b15801561179657600080fd5b505af11580156117aa573d6000803e3d6000fd5b505050506040513d60208110156117c057600080fd5b8101908080519060200190929190505050611826576040517f08c379a0000000000000000000000000000000000000000000000000000000008152600401808060200182810382526024815260200180611ca86024913960400191505060405180910390fd5b600260009054906101000a900473ffffffffffffffffffffffffffffffffffffffff1673ffffffffffffffffffffffffffffffffffffffff166335ebaeb8600360009054906101000a900473ffffffffffffffffffffffffffffffffffffffff1684336040518463ffffffff1660e01b8152600401808473ffffffffffffffffffffffffffffffffffffffff1681526020018381526020018273ffffffffffffffffffffffffffffffffffffffff1681526020019350505050602060405180830381600087803b1580156118f957600080fd5b505af115801561190d573d6000803e3d6000fd5b505050506040513d602081101561192357600080fd5b8101908080519060200190929190505050611989576040517f08c379a0000000000000000000000000000000000000000000000000000000008152600401808060200182810382526031815260200180611c776031913960400191505060405180910390fd5b7f4d14e9a27d97e784e7328fa21f5273936828cd132d490c0b456812c51ff1ba76816000015182602001518484606001518560800151604051808060200180602001868152602001806020018060200185810385528a818151815260200191508051906020019080838360005b83811015611a115780820151818401526020810190506119f6565b50505050905090810190601f168015611a3e5780820380516001836020036101000a031916815260200191505b50858103845289818151815260200191508051906020019080838360005b83811015611a77578082015181840152602081019050611a5c565b50505050905090810190601f168015611aa45780820380516001836020036101000a031916815260200191505b50858103835287818151815260200191508051906020019080838360005b83811015611add578082015181840152602081019050611ac2565b50505050905090810190601f168015611b0a5780820380516001836020036101000a031916815260200191505b50858103825286818151815260200191508051906020019080838360005b83811015611b43578082015181840152602081019050611b28565b50505050905090810190601f168015611b705780820380516001836020036101000a031916815260200191505b50995050505050505050505060405180910390a1505050565b6040518060a0016040528060608152602001606081526020016000815260200160608152602001606081525090565b828054600181600116156101000203166002900490600052602060002090601f016020900481019282601f10611bf957805160ff1916838001178555611c27565b82800160010185558215611c27579182015b82811115611c26578251825591602001919060010190611c0b565b5b509050611c349190611c38565b5090565b5b80821115611c51576000816000905550600101611c39565b509056fe6d73672e73656e6465722068617320696e73756666696369656e7420746f6b656e756e61626c6520746f2063616c6c207472616e73666572206675636e74696f6e206f6620746f6b656e636f6e7472616374756e61626c6520746f2063616c6c2073746f7265416e64416c6c6f63617465546f6b656ea26469706673582212200533401bf3f799d9c2f4ec607249e128258a2db8650b437711f820c5634de4c364736f6c63430007010033",
  "source": "// SPDX-License-Identifier: GPL-3.0\r\npragma solidity >=0.4.0 <0.8.0;\r\n\r\nimport './DappToken.sol';\r\nimport './MusicContract.sol';\r\n\r\ncontract Musicc {\r\n    \r\n    string public name;\r\n    address admin;\r\n    DappToken public tokenContract;\r\n    MusicContract public musicContract;\r\n    mapping(string => Music) music;\r\n\r\n    struct Music\r\n    {\r\n        string musicName;\r\n        string artistName;\r\n        uint price;\r\n        string musicIdentifier;\r\n        string aesKey;\r\n    }\r\n\r\n    //events are created to make sure that receipts are obtained after a txn is completed.\r\n    event MusicAdded\r\n    (\r\n        string musicName,\r\n        string artistName,\r\n        uint price,\r\n        string musicIdentifier,\r\n        string aesKey\r\n       \r\n    );\r\n\r\n     event MusicPurchased\r\n    (\r\n        string musicName,\r\n        string artistName,\r\n        uint price,\r\n        string musicIdentifier,\r\n        string aesKey\r\n       \r\n    );\r\n\r\n    event MusicTipped\r\n    (\r\n        string musicName,\r\n        string artistName,\r\n        uint price,\r\n        string musicIdentifier,\r\n        string aesKey\r\n       \r\n    );\r\n    \r\n    constructor(DappToken _tokenContract, MusicContract _musicContract) {\r\n        admin = msg.sender;\r\n        tokenContract = _tokenContract;\r\n        musicContract = _musicContract;\r\n        name = \"Music Marketplace\";\r\n    } \r\n\r\n    function musicAdd(string memory _musicName, string memory _artistName, uint _price, string memory _musicIdentifier, string memory _aesKey) public\r\n    {\r\n        //Require valid name\r\n        require(bytes(_musicName).length > 0);\r\n        require(bytes(_artistName).length > 0);\r\n\r\n        //Require valid price\r\n        require(_price > 0);\r\n\r\n        //Create the product\r\n        music[_musicIdentifier] = Music(_musicName, _artistName, _price,  _musicIdentifier, _aesKey);\r\n\r\n        //Trigger an event\r\n        emit MusicAdded(_musicName, _artistName, _price,  _musicIdentifier, _aesKey);\r\n    }\r\n\r\n    function musicPurchase(string memory _musicIdentifier) public \r\n    {\r\n        //fetch product\r\n        //memory space is being used to store copy of said product i.e copy of products[_id]\r\n        Music memory _product = music[_musicIdentifier];\r\n\r\n        //check is there is enough token of the msg.sender\r\n        require(tokenContract.balanceOf(msg.sender) >= _product.price, 'msg.sender has insufficient token');\r\n\r\n        uint256 _tokenPrice = _product.price;\r\n\r\n        //call storeAndAllocateTokens from musiccontract\r\n        require(musicContract.storeAndAllocateTokens(_product.price, _musicIdentifier), 'unable to call storeAndAllocateToken');\r\n\r\n        //trasnfer the total token to musicContract\r\n        require(tokenContract.tTransfer(address(musicContract), _tokenPrice, msg.sender), 'unable to call transfer fucntion of tokencontract');\r\n       \r\n        //require(tokenContract.transfer(address(musicContract), _tokenPrice), 'unable to call transfer fucntion of tokencontract');\r\n\r\n\r\n        //trigger an event \r\n        emit MusicPurchased(_product.musicName, _product.artistName, _product.price, _product.musicIdentifier, _product.aesKey);\r\n    } \r\n\r\n    function musicTip(string memory _musicIdentifier, uint256 _tokenNumber) public \r\n    {\r\n        //fetch product\r\n        Music memory _product = music[_musicIdentifier];\r\n        \r\n        //check is there is enough token of the msg.sender\r\n        require(tokenContract.balanceOf(msg.sender) >= _tokenNumber, 'msg.sender has insufficient token');\r\n\r\n        //call storeAndAllocateTokens from musiccontract\r\n        require(musicContract.storeAndAllocateTokens(_tokenNumber, _musicIdentifier), 'unable to call storeAndAllocateToken');\r\n\r\n        //pay the seller by tranfering token\r\n        require(tokenContract.tTransfer(address(musicContract), _tokenNumber, msg.sender), 'unable to call transfer fucntion of tokencontract');\r\n        \r\n        //require(tokenContract.transfer(address(musicContract), _tokenNumber), 'unable to call transfer fucntion of tokencontract');\r\n\r\n        //trigger an event\r\n        emit MusicTipped(_product.musicName, _product.artistName, _tokenNumber, _product.musicIdentifier, _product.aesKey);\r\n    }\r\n}",
  "sourcePath": "D:\\apurba\\projects\\musicDapp\\src\\contracts\\Music.sol",
  "compiler": {
    "name": "solc",
    "version": "0.7.1+commit.f4a555be.Emscripten.clang"
  },
  "schemaVersion": "3.0.23",
  "updatedAt": "2020-12-13T12:19:58.452Z",
  "networkType": "ethereum",
  "devdoc": {
    "kind": "dev",
    "methods": {},
    "version": 1
  },
  "userdoc": {
    "kind": "user",
    "methods": {},
    "version": 1
  }
}