{
  "contractName": "Musicc",
  "abi": [
    {
      "inputs": [
        {
          "internalType": "contract DappToken",
          "name": "_tokenContract",
          "type": "address"
        },
        {
          "internalType": "contract MusicContract",
          "name": "_musicContract",
          "type": "address"
        }
      ],
      "stateMutability": "nonpayable",
      "type": "constructor"
    },
    {
      "anonymous": false,
      "inputs": [
        {
          "indexed": false,
          "internalType": "string",
          "name": "musicName",
          "type": "string"
        },
        {
          "indexed": false,
          "internalType": "string",
          "name": "artistName",
          "type": "string"
        },
        {
          "indexed": false,
          "internalType": "uint256",
          "name": "price",
          "type": "uint256"
        },
        {
          "indexed": false,
          "internalType": "string",
          "name": "musicIdentifier",
          "type": "string"
        }
      ],
      "name": "MusicAdded",
      "type": "event"
    },
    {
      "anonymous": false,
      "inputs": [
        {
          "indexed": false,
          "internalType": "string",
          "name": "musicName",
          "type": "string"
        },
        {
          "indexed": false,
          "internalType": "string",
          "name": "artistName",
          "type": "string"
        },
        {
          "indexed": false,
          "internalType": "uint256",
          "name": "price",
          "type": "uint256"
        },
        {
          "indexed": false,
          "internalType": "string",
          "name": "musicIdentifier",
          "type": "string"
        }
      ],
      "name": "MusicPurchased",
      "type": "event"
    },
    {
      "anonymous": false,
      "inputs": [
        {
          "indexed": false,
          "internalType": "string",
          "name": "musicName",
          "type": "string"
        },
        {
          "indexed": false,
          "internalType": "string",
          "name": "artistName",
          "type": "string"
        },
        {
          "indexed": false,
          "internalType": "uint256",
          "name": "price",
          "type": "uint256"
        },
        {
          "indexed": false,
          "internalType": "string",
          "name": "musicIdentifier",
          "type": "string"
        }
      ],
      "name": "MusicTipped",
      "type": "event"
    },
    {
      "inputs": [
        {
          "internalType": "string",
          "name": "",
          "type": "string"
        }
      ],
      "name": "music",
      "outputs": [
        {
          "internalType": "string",
          "name": "musicName",
          "type": "string"
        },
        {
          "internalType": "string",
          "name": "artistName",
          "type": "string"
        },
        {
          "internalType": "uint256",
          "name": "price",
          "type": "uint256"
        },
        {
          "internalType": "string",
          "name": "musicIdentifier",
          "type": "string"
        }
      ],
      "stateMutability": "view",
      "type": "function"
    },
    {
      "inputs": [],
      "name": "musicContract",
      "outputs": [
        {
          "internalType": "contract MusicContract",
          "name": "",
          "type": "address"
        }
      ],
      "stateMutability": "view",
      "type": "function"
    },
    {
      "inputs": [],
      "name": "name",
      "outputs": [
        {
          "internalType": "string",
          "name": "",
          "type": "string"
        }
      ],
      "stateMutability": "view",
      "type": "function"
    },
    {
      "inputs": [],
      "name": "tokenContract",
      "outputs": [
        {
          "internalType": "contract DappToken",
          "name": "",
          "type": "address"
        }
      ],
      "stateMutability": "view",
      "type": "function"
    },
    {
      "inputs": [
        {
          "internalType": "string",
          "name": "_musicName",
          "type": "string"
        },
        {
          "internalType": "string",
          "name": "_artistName",
          "type": "string"
        },
        {
          "internalType": "uint256",
          "name": "_price",
          "type": "uint256"
        },
        {
          "internalType": "string",
          "name": "_musicIdentifier",
          "type": "string"
        }
      ],
      "name": "musicAdd",
      "outputs": [],
      "stateMutability": "nonpayable",
      "type": "function"
    },
    {
      "inputs": [
        {
          "internalType": "string",
          "name": "_musicIdentifier",
          "type": "string"
        }
      ],
      "name": "musicPurchase",
      "outputs": [],
      "stateMutability": "nonpayable",
      "type": "function"
    },
    {
      "inputs": [
        {
          "internalType": "string",
          "name": "_musicIdentifier",
          "type": "string"
        },
        {
          "internalType": "uint256",
          "name": "_tokenNumber",
          "type": "uint256"
        }
      ],
      "name": "musicTip",
      "outputs": [],
      "stateMutability": "nonpayable",
      "type": "function"
    }
  ],
  "bytecode": "0x60806040523480156200001157600080fd5b506040516200200938038062002009833981810160405260408110156200003757600080fd5b81019080805190602001909291908051906020019092919050505033600160006101000a81548173ffffffffffffffffffffffffffffffffffffffff021916908373ffffffffffffffffffffffffffffffffffffffff16021790555081600260006101000a81548173ffffffffffffffffffffffffffffffffffffffff021916908373ffffffffffffffffffffffffffffffffffffffff16021790555080600360006101000a81548173ffffffffffffffffffffffffffffffffffffffff021916908373ffffffffffffffffffffffffffffffffffffffff1602179055506040518060400160405280601181526020017f4d75736963204d61726b6574706c61636500000000000000000000000000000081525060009080519060200190620001629291906200016b565b50505062000211565b828054600181600116156101000203166002900490600052602060002090601f016020900481019282601f10620001ae57805160ff1916838001178555620001df565b82800160010185558215620001df579182015b82811115620001de578251825591602001919060010190620001c1565b5b509050620001ee9190620001f2565b5090565b5b808211156200020d576000816000905550600101620001f3565b5090565b611de880620002216000396000f3fe608060405234801561001057600080fd5b506004361061007d5760003560e01c80635994911e1161005b5780635994911e1461032c57806372898dd1146103e757806399ebc9651461041b578063d60043031461062e5761007d565b806306fdde0314610082578063146034531461010557806355a373d6146102f8575b600080fd5b61008a6106f3565b6040518080602001828103825283818151815260200191508051906020019080838360005b838110156100ca5780820151818401526020810190506100af565b50505050905090810190601f1680156100f75780820380516001836020036101000a031916815260200191505b509250505060405180910390f35b6102f66004803603608081101561011b57600080fd5b810190808035906020019064010000000081111561013857600080fd5b82018360208201111561014a57600080fd5b8035906020019184600183028401116401000000008311171561016c57600080fd5b91908080601f016020809104026020016040519081016040528093929190818152602001838380828437600081840152601f19601f820116905080830192505050505050509192919290803590602001906401000000008111156101cf57600080fd5b8201836020820111156101e157600080fd5b8035906020019184600183028401116401000000008311171561020357600080fd5b91908080601f016020809104026020016040519081016040528093929190818152602001838380828437600081840152601f19601f820116905080830192505050505050509192919290803590602001909291908035906020019064010000000081111561027057600080fd5b82018360208201111561028257600080fd5b803590602001918460018302840111640100000000831117156102a457600080fd5b91908080601f016020809104026020016040519081016040528093929190818152602001838380828437600081840152601f19601f820116905080830192505050505050509192919290505050610791565b005b610300610a2c565b604051808273ffffffffffffffffffffffffffffffffffffffff16815260200191505060405180910390f35b6103e56004803603602081101561034257600080fd5b810190808035906020019064010000000081111561035f57600080fd5b82018360208201111561037157600080fd5b8035906020019184600183028401116401000000008311171561039357600080fd5b91908080601f016020809104026020016040519081016040528093929190818152602001838380828437600081840152601f19601f820116905080830192505050505050509192919290505050610a52565b005b6103ef611255565b604051808273ffffffffffffffffffffffffffffffffffffffff16815260200191505060405180910390f35b6104d46004803603602081101561043157600080fd5b810190808035906020019064010000000081111561044e57600080fd5b82018360208201111561046057600080fd5b8035906020019184600183028401116401000000008311171561048257600080fd5b91908080601f016020809104026020016040519081016040528093929190818152602001838380828437600081840152601f19601f82011690508083019250505050505050919291929050505061127b565b60405180806020018060200185815260200180602001848103845288818151815260200191508051906020019080838360005b83811015610522578082015181840152602081019050610507565b50505050905090810190601f16801561054f5780820380516001836020036101000a031916815260200191505b50848103835287818151815260200191508051906020019080838360005b8381101561058857808201518184015260208101905061056d565b50505050905090810190601f1680156105b55780820380516001836020036101000a031916815260200191505b50848103825285818151815260200191508051906020019080838360005b838110156105ee5780820151818401526020810190506105d3565b50505050905090810190601f16801561061b5780820380516001836020036101000a031916815260200191505b5097505050505050505060405180910390f35b6106f16004803603604081101561064457600080fd5b810190808035906020019064010000000081111561066157600080fd5b82018360208201111561067357600080fd5b8035906020019184600183028401116401000000008311171561069557600080fd5b91908080601f016020809104026020016040519081016040528093929190818152602001838380828437600081840152601f19601f82011690508083019250505050505050919291929080359060200190929190505050611489565b005b60008054600181600116156101000203166002900480601f0160208091040260200160405190810160405280929190818152602001828054600181600116156101000203166002900480156107895780601f1061075e57610100808354040283529160200191610789565b820191906000526020600020905b81548152906001019060200180831161076c57829003601f168201915b505050505081565b600084511161079f57600080fd5b60008351116107ad57600080fd5b600082116107ba57600080fd5b6040518060800160405280858152602001848152602001838152602001828152506004826040518082805190602001908083835b6020831061081157805182526020820191506020810190506020830392506107ee565b6001836020036101000a03801982511681845116808217855250505050505090500191505090815260200160405180910390206000820151816000019080519060200190610860929190611c77565b50602082015181600101908051906020019061087d929190611c77565b506040820151816002015560608201518160030190805190602001906108a4929190611c77565b509050507fd21446b3dccf116c665fe7910eebd07d3f63e724abd735f970d32ff80fca68898484848460405180806020018060200185815260200180602001848103845288818151815260200191508051906020019080838360005b8381101561091b578082015181840152602081019050610900565b50505050905090810190601f1680156109485780820380516001836020036101000a031916815260200191505b50848103835287818151815260200191508051906020019080838360005b83811015610981578082015181840152602081019050610966565b50505050905090810190601f1680156109ae5780820380516001836020036101000a031916815260200191505b50848103825285818151815260200191508051906020019080838360005b838110156109e75780820151818401526020810190506109cc565b50505050905090810190601f168015610a145780820380516001836020036101000a031916815260200191505b5097505050505050505060405180910390a150505050565b600260009054906101000a900473ffffffffffffffffffffffffffffffffffffffff1681565b610a5a611cf7565b6004826040518082805190602001908083835b60208310610a905780518252602082019150602081019050602083039250610a6d565b6001836020036101000a0380198251168184511680821785525050505050509050019150509081526020016040518091039020604051806080016040529081600082018054600181600116156101000203166002900480601f016020809104026020016040519081016040528092919081815260200182805460018160011615610100020316600290048015610b675780601f10610b3c57610100808354040283529160200191610b67565b820191906000526020600020905b815481529060010190602001808311610b4a57829003601f168201915b50505050508152602001600182018054600181600116156101000203166002900480601f016020809104026020016040519081016040528092919081815260200182805460018160011615610100020316600290048015610c095780601f10610bde57610100808354040283529160200191610c09565b820191906000526020600020905b815481529060010190602001808311610bec57829003601f168201915b5050505050815260200160028201548152602001600382018054600181600116156101000203166002900480601f016020809104026020016040519081016040528092919081815260200182805460018160011615610100020316600290048015610cb55780601f10610c8a57610100808354040283529160200191610cb5565b820191906000526020600020905b815481529060010190602001808311610c9857829003601f168201915b50505050508152505090508060400151600260009054906101000a900473ffffffffffffffffffffffffffffffffffffffff1673ffffffffffffffffffffffffffffffffffffffff166370a08231336040518263ffffffff1660e01b8152600401808273ffffffffffffffffffffffffffffffffffffffff16815260200191505060206040518083038186803b158015610d4e57600080fd5b505afa158015610d62573d6000803e3d6000fd5b505050506040513d6020811015610d7857600080fd5b81019080805190602001909291905050501015610de0576040517f08c379a0000000000000000000000000000000000000000000000000000000008152600401808060200182810382526021815260200180611d3d6021913960400191505060405180910390fd5b600081604001519050600360009054906101000a900473ffffffffffffffffffffffffffffffffffffffff1673ffffffffffffffffffffffffffffffffffffffff1663234fac168360400151856040518363ffffffff1660e01b81526004018083815260200180602001828103825283818151815260200191508051906020019080838360005b83811015610e82578082015181840152602081019050610e67565b50505050905090810190601f168015610eaf5780820380516001836020036101000a031916815260200191505b509350505050602060405180830381600087803b158015610ecf57600080fd5b505af1158015610ee3573d6000803e3d6000fd5b505050506040513d6020811015610ef957600080fd5b8101908080519060200190929190505050610f5f576040517f08c379a0000000000000000000000000000000000000000000000000000000008152600401808060200182810382526024815260200180611d8f6024913960400191505060405180910390fd5b600260009054906101000a900473ffffffffffffffffffffffffffffffffffffffff1673ffffffffffffffffffffffffffffffffffffffff166335ebaeb8600360009054906101000a900473ffffffffffffffffffffffffffffffffffffffff1683336040518463ffffffff1660e01b8152600401808473ffffffffffffffffffffffffffffffffffffffff1681526020018381526020018273ffffffffffffffffffffffffffffffffffffffff1681526020019350505050602060405180830381600087803b15801561103257600080fd5b505af1158015611046573d6000803e3d6000fd5b505050506040513d602081101561105c57600080fd5b81019080805190602001909291905050506110c2576040517f08c379a0000000000000000000000000000000000000000000000000000000008152600401808060200182810382526031815260200180611d5e6031913960400191505060405180910390fd5b7f30128d40f861598e08a17fe91b5423bc5d9b8581fd1ec5eab2d8c882f28407c7826000015183602001518460400151856060015160405180806020018060200185815260200180602001848103845288818151815260200191508051906020019080838360005b8381101561114557808201518184015260208101905061112a565b50505050905090810190601f1680156111725780820380516001836020036101000a031916815260200191505b50848103835287818151815260200191508051906020019080838360005b838110156111ab578082015181840152602081019050611190565b50505050905090810190601f1680156111d85780820380516001836020036101000a031916815260200191505b50848103825285818151815260200191508051906020019080838360005b838110156112115780820151818401526020810190506111f6565b50505050905090810190601f16801561123e5780820380516001836020036101000a031916815260200191505b5097505050505050505060405180910390a1505050565b600360009054906101000a900473ffffffffffffffffffffffffffffffffffffffff1681565b600481805160208101820180518482526020830160208501208183528095505050505050600091509050806000018054600181600116156101000203166002900480601f01602080910402602001604051908101604052809291908181526020018280546001816001161561010002031660029004801561133d5780601f106113125761010080835404028352916020019161133d565b820191906000526020600020905b81548152906001019060200180831161132057829003601f168201915b505050505090806001018054600181600116156101000203166002900480601f0160208091040260200160405190810160405280929190818152602001828054600181600116156101000203166002900480156113db5780601f106113b0576101008083540402835291602001916113db565b820191906000526020600020905b8154815290600101906020018083116113be57829003601f168201915b505050505090806002015490806003018054600181600116156101000203166002900480601f01602080910402602001604051908101604052809291908181526020018280546001816001161561010002031660029004801561147f5780601f106114545761010080835404028352916020019161147f565b820191906000526020600020905b81548152906001019060200180831161146257829003601f168201915b5050505050905084565b611491611cf7565b6004836040518082805190602001908083835b602083106114c757805182526020820191506020810190506020830392506114a4565b6001836020036101000a0380198251168184511680821785525050505050509050019150509081526020016040518091039020604051806080016040529081600082018054600181600116156101000203166002900480601f01602080910402602001604051908101604052809291908181526020018280546001816001161561010002031660029004801561159e5780601f106115735761010080835404028352916020019161159e565b820191906000526020600020905b81548152906001019060200180831161158157829003601f168201915b50505050508152602001600182018054600181600116156101000203166002900480601f0160208091040260200160405190810160405280929190818152602001828054600181600116156101000203166002900480156116405780601f1061161557610100808354040283529160200191611640565b820191906000526020600020905b81548152906001019060200180831161162357829003601f168201915b5050505050815260200160028201548152602001600382018054600181600116156101000203166002900480601f0160208091040260200160405190810160405280929190818152602001828054600181600116156101000203166002900480156116ec5780601f106116c1576101008083540402835291602001916116ec565b820191906000526020600020905b8154815290600101906020018083116116cf57829003601f168201915b505050505081525050905081600260009054906101000a900473ffffffffffffffffffffffffffffffffffffffff1673ffffffffffffffffffffffffffffffffffffffff166370a08231336040518263ffffffff1660e01b8152600401808273ffffffffffffffffffffffffffffffffffffffff16815260200191505060206040518083038186803b15801561178157600080fd5b505afa158015611795573d6000803e3d6000fd5b505050506040513d60208110156117ab57600080fd5b81019080805190602001909291905050501015611813576040517f08c379a0000000000000000000000000000000000000000000000000000000008152600401808060200182810382526021815260200180611d3d6021913960400191505060405180910390fd5b600360009054906101000a900473ffffffffffffffffffffffffffffffffffffffff1673ffffffffffffffffffffffffffffffffffffffff1663234fac1683856040518363ffffffff1660e01b81526004018083815260200180602001828103825283818151815260200191508051906020019080838360005b838110156118a857808201518184015260208101905061188d565b50505050905090810190601f1680156118d55780820380516001836020036101000a031916815260200191505b509350505050602060405180830381600087803b1580156118f557600080fd5b505af1158015611909573d6000803e3d6000fd5b505050506040513d602081101561191f57600080fd5b8101908080519060200190929190505050611985576040517f08c379a0000000000000000000000000000000000000000000000000000000008152600401808060200182810382526024815260200180611d8f6024913960400191505060405180910390fd5b600260009054906101000a900473ffffffffffffffffffffffffffffffffffffffff1673ffffffffffffffffffffffffffffffffffffffff166335ebaeb8600360009054906101000a900473ffffffffffffffffffffffffffffffffffffffff1684336040518463ffffffff1660e01b8152600401808473ffffffffffffffffffffffffffffffffffffffff1681526020018381526020018273ffffffffffffffffffffffffffffffffffffffff1681526020019350505050602060405180830381600087803b158015611a5857600080fd5b505af1158015611a6c573d6000803e3d6000fd5b505050506040513d6020811015611a8257600080fd5b8101908080519060200190929190505050611ae8576040517f08c379a0000000000000000000000000000000000000000000000000000000008152600401808060200182810382526031815260200180611d5e6031913960400191505060405180910390fd5b7f20a337e5054b6fb96713f935b3f6925233f64de4b779d32915c98827a15a66708160000151826020015184846060015160405180806020018060200185815260200180602001848103845288818151815260200191508051906020019080838360005b83811015611b67578082015181840152602081019050611b4c565b50505050905090810190601f168015611b945780820380516001836020036101000a031916815260200191505b50848103835287818151815260200191508051906020019080838360005b83811015611bcd578082015181840152602081019050611bb2565b50505050905090810190601f168015611bfa5780820380516001836020036101000a031916815260200191505b50848103825285818151815260200191508051906020019080838360005b83811015611c33578082015181840152602081019050611c18565b50505050905090810190601f168015611c605780820380516001836020036101000a031916815260200191505b5097505050505050505060405180910390a1505050565b828054600181600116156101000203166002900490600052602060002090601f016020900481019282601f10611cb857805160ff1916838001178555611ce6565b82800160010185558215611ce6579182015b82811115611ce5578251825591602001919060010190611cca565b5b509050611cf39190611d1f565b5090565b6040518060800160405280606081526020016060815260200160008152602001606081525090565b5b80821115611d38576000816000905550600101611d20565b509056fe6d73672e73656e6465722068617320696e73756666696369656e7420746f6b656e756e61626c6520746f2063616c6c207472616e73666572206675636e74696f6e206f6620746f6b656e636f6e7472616374756e61626c6520746f2063616c6c2073746f7265416e64416c6c6f63617465546f6b656ea264697066735822122043ebf0ca6174b6bb1c0044855d61278af4ca3dff5a7358ff7998a065535f7e8d64736f6c63430007010033",
  "source": "// SPDX-License-Identifier: GPL-3.0\r\npragma solidity >=0.4.0 <0.8.0;\r\n\r\nimport './DappToken.sol';\r\nimport './MusicContract.sol';\r\n\r\ncontract Musicc {\r\n    \r\n    string public name;\r\n    address admin;\r\n    DappToken public tokenContract;\r\n    MusicContract public musicContract;\r\n    mapping(string => Music) public music;\r\n\r\n    struct Music\r\n    {\r\n        string musicName;\r\n        string artistName;\r\n        uint price;\r\n        string musicIdentifier;\r\n    }\r\n\r\n    //events are created to make sure that receipts are obtained after a txn is completed.\r\n    event MusicAdded\r\n    (\r\n        string musicName,\r\n        string artistName,\r\n        uint price,\r\n        string musicIdentifier\r\n    );\r\n\r\n     event MusicPurchased\r\n    (\r\n        string musicName,\r\n        string artistName,\r\n        uint price,\r\n        string musicIdentifier\r\n    );\r\n\r\n    event MusicTipped\r\n    (\r\n        string musicName,\r\n        string artistName,\r\n        uint price,\r\n        string musicIdentifier\r\n    );\r\n    \r\n    constructor(DappToken _tokenContract, MusicContract _musicContract) {\r\n        admin = msg.sender;\r\n        tokenContract = _tokenContract;\r\n        musicContract = _musicContract;\r\n        name = \"Music Marketplace\";\r\n    } \r\n\r\n    function musicAdd(string memory _musicName, string memory _artistName, uint _price, string memory _musicIdentifier) public\r\n    {\r\n        //Require valid name\r\n        require(bytes(_musicName).length > 0);\r\n        require(bytes(_artistName).length > 0);\r\n\r\n        //Require valid price\r\n        require(_price > 0);\r\n\r\n        //Create the product\r\n        music[_musicIdentifier] = Music(_musicName, _artistName, _price,  _musicIdentifier);\r\n\r\n        //Trigger an event\r\n        emit MusicAdded(_musicName, _artistName, _price,  _musicIdentifier);\r\n    }\r\n\r\n    function musicPurchase(string memory _musicIdentifier) public \r\n    {\r\n        //fetch product\r\n        //memory space is being used to store copy of said product i.e copy of products[_id]\r\n        Music memory _product = music[_musicIdentifier];\r\n\r\n        //check is there is enough token of the msg.sender\r\n        require(tokenContract.balanceOf(msg.sender) >= _product.price, 'msg.sender has insufficient token');\r\n\r\n        uint256 _tokenPrice = _product.price;\r\n\r\n        //call storeAndAllocateTokens from musiccontract\r\n        require(musicContract.storeAndAllocateTokens(_product.price, _musicIdentifier), 'unable to call storeAndAllocateToken');\r\n\r\n        //trasnfer the total token to musicContract\r\n        require(tokenContract.tTransfer(address(musicContract), _tokenPrice, msg.sender), 'unable to call transfer fucntion of tokencontract');\r\n       \r\n        //trigger an event \r\n        emit MusicPurchased(_product.musicName, _product.artistName, _product.price, _product.musicIdentifier);\r\n    } \r\n\r\n    function musicTip(string memory _musicIdentifier, uint256 _tokenNumber) public \r\n    {\r\n        //fetch product\r\n        Music memory _product = music[_musicIdentifier];\r\n        \r\n        //check is there is enough token of the msg.sender\r\n        require(tokenContract.balanceOf(msg.sender) >= _tokenNumber, 'msg.sender has insufficient token');\r\n\r\n        //call storeAndAllocateTokens from musiccontract\r\n        require(musicContract.storeAndAllocateTokens(_tokenNumber, _musicIdentifier), 'unable to call storeAndAllocateToken');\r\n\r\n        //pay the seller by tranfering token\r\n        require(tokenContract.tTransfer(address(musicContract), _tokenNumber, msg.sender), 'unable to call transfer fucntion of tokencontract');\r\n        \r\n        //trigger an event\r\n        emit MusicTipped(_product.musicName, _product.artistName, _tokenNumber, _product.musicIdentifier);\r\n    }\r\n}",
  "sourcePath": "D:\\apurba\\projects\\musicDapp\\src\\contracts\\Music.sol",
  "compiler": {
    "name": "solc",
    "version": "0.7.1+commit.f4a555be.Emscripten.clang"
  },
  "schemaVersion": "3.0.23",
  "updatedAt": "2020-12-17T14:57:46.766Z",
  "devdoc": {
    "kind": "dev",
    "methods": {},
    "version": 1
  },
  "userdoc": {
    "kind": "user",
    "methods": {},
    "version": 1
  }
}