{
  "contractName": "Musicc",
  "abi": [
    {
      "inputs": [
        {
          "internalType": "contract DappToken",
          "name": "_tokenContract",
          "type": "address"
        }
      ],
      "payable": false,
      "stateMutability": "nonpayable",
      "type": "constructor"
    },
    {
      "anonymous": false,
      "inputs": [
        {
          "indexed": false,
          "internalType": "uint256",
          "name": "id",
          "type": "uint256"
        },
        {
          "indexed": false,
          "internalType": "string",
          "name": "musicName",
          "type": "string"
        },
        {
          "indexed": false,
          "internalType": "string",
          "name": "artistName",
          "type": "string"
        },
        {
          "indexed": false,
          "internalType": "uint256",
          "name": "price",
          "type": "uint256"
        },
        {
          "indexed": false,
          "internalType": "address payable",
          "name": "owner",
          "type": "address"
        },
        {
          "indexed": false,
          "internalType": "string",
          "name": "musicIdentifier",
          "type": "string"
        },
        {
          "indexed": false,
          "internalType": "string",
          "name": "aesKey",
          "type": "string"
        }
      ],
      "name": "MusicAdded",
      "type": "event"
    },
    {
      "anonymous": false,
      "inputs": [
        {
          "indexed": false,
          "internalType": "uint256",
          "name": "id",
          "type": "uint256"
        },
        {
          "indexed": false,
          "internalType": "string",
          "name": "musicName",
          "type": "string"
        },
        {
          "indexed": false,
          "internalType": "string",
          "name": "artistName",
          "type": "string"
        },
        {
          "indexed": false,
          "internalType": "uint256",
          "name": "price",
          "type": "uint256"
        },
        {
          "indexed": false,
          "internalType": "address payable",
          "name": "owner",
          "type": "address"
        },
        {
          "indexed": false,
          "internalType": "string",
          "name": "musicIdentifier",
          "type": "string"
        },
        {
          "indexed": false,
          "internalType": "string",
          "name": "aesKey",
          "type": "string"
        }
      ],
      "name": "MusicPurchased",
      "type": "event"
    },
    {
      "anonymous": false,
      "inputs": [
        {
          "indexed": false,
          "internalType": "uint256",
          "name": "id",
          "type": "uint256"
        },
        {
          "indexed": false,
          "internalType": "string",
          "name": "musicName",
          "type": "string"
        },
        {
          "indexed": false,
          "internalType": "string",
          "name": "artistName",
          "type": "string"
        },
        {
          "indexed": false,
          "internalType": "uint256",
          "name": "price",
          "type": "uint256"
        },
        {
          "indexed": false,
          "internalType": "address payable",
          "name": "owner",
          "type": "address"
        },
        {
          "indexed": false,
          "internalType": "string",
          "name": "musicIdentifier",
          "type": "string"
        },
        {
          "indexed": false,
          "internalType": "string",
          "name": "aesKey",
          "type": "string"
        }
      ],
      "name": "MusicTipped",
      "type": "event"
    },
    {
      "constant": true,
      "inputs": [
        {
          "internalType": "uint256",
          "name": "",
          "type": "uint256"
        }
      ],
      "name": "music",
      "outputs": [
        {
          "internalType": "uint256",
          "name": "id",
          "type": "uint256"
        },
        {
          "internalType": "string",
          "name": "musicName",
          "type": "string"
        },
        {
          "internalType": "string",
          "name": "artistName",
          "type": "string"
        },
        {
          "internalType": "uint256",
          "name": "price",
          "type": "uint256"
        },
        {
          "internalType": "address payable",
          "name": "owner",
          "type": "address"
        },
        {
          "internalType": "string",
          "name": "musicIdentifier",
          "type": "string"
        },
        {
          "internalType": "string",
          "name": "aesKey",
          "type": "string"
        }
      ],
      "payable": false,
      "stateMutability": "view",
      "type": "function"
    },
    {
      "constant": true,
      "inputs": [],
      "name": "musicCount",
      "outputs": [
        {
          "internalType": "uint256",
          "name": "",
          "type": "uint256"
        }
      ],
      "payable": false,
      "stateMutability": "view",
      "type": "function"
    },
    {
      "constant": true,
      "inputs": [],
      "name": "name",
      "outputs": [
        {
          "internalType": "string",
          "name": "",
          "type": "string"
        }
      ],
      "payable": false,
      "stateMutability": "view",
      "type": "function"
    },
    {
      "constant": true,
      "inputs": [],
      "name": "tokenContract",
      "outputs": [
        {
          "internalType": "contract DappToken",
          "name": "",
          "type": "address"
        }
      ],
      "payable": false,
      "stateMutability": "view",
      "type": "function"
    },
    {
      "constant": false,
      "inputs": [
        {
          "internalType": "string",
          "name": "_musicName",
          "type": "string"
        },
        {
          "internalType": "string",
          "name": "_artistName",
          "type": "string"
        },
        {
          "internalType": "uint256",
          "name": "_price",
          "type": "uint256"
        },
        {
          "internalType": "string",
          "name": "_musicIdentifier",
          "type": "string"
        },
        {
          "internalType": "string",
          "name": "_aesKey",
          "type": "string"
        }
      ],
      "name": "musicAdd",
      "outputs": [],
      "payable": false,
      "stateMutability": "nonpayable",
      "type": "function"
    },
    {
      "constant": false,
      "inputs": [
        {
          "internalType": "uint256",
          "name": "_id",
          "type": "uint256"
        }
      ],
      "name": "musicPurchase",
      "outputs": [],
      "payable": false,
      "stateMutability": "nonpayable",
      "type": "function"
    },
    {
      "constant": false,
      "inputs": [
        {
          "internalType": "uint256",
          "name": "_id",
          "type": "uint256"
        },
        {
          "internalType": "uint256",
          "name": "_tokenNumber",
          "type": "uint256"
        }
      ],
      "name": "musicTip",
      "outputs": [],
      "payable": false,
      "stateMutability": "nonpayable",
      "type": "function"
    }
  ],
  "bytecode": "0x608060405260006003553480156200001657600080fd5b506040516200236a3803806200236a833981810160405260208110156200003c57600080fd5b810190808051906020019092919050505033600160006101000a81548173ffffffffffffffffffffffffffffffffffffffff021916908373ffffffffffffffffffffffffffffffffffffffff16021790555080600260006101000a81548173ffffffffffffffffffffffffffffffffffffffff021916908373ffffffffffffffffffffffffffffffffffffffff1602179055506040518060400160405280601181526020017f4d75736963204d61726b6574706c616365000000000000000000000000000000815250600090805190602001906200011c92919062000124565b5050620001d3565b828054600181600116156101000203166002900490600052602060002090601f016020900481019282601f106200016757805160ff191683800117855562000198565b8280016001018555821562000198579182015b82811115620001975782518255916020019190600101906200017a565b5b509050620001a79190620001ab565b5090565b620001d091905b80821115620001cc576000816000905550600101620001b2565b5090565b90565b61218780620001e36000396000f3fe608060405234801561001057600080fd5b506004361061007d5760003560e01c8063710452b01161005b578063710452b01461016d57806389f32940146101a55780639eb47667146101d3578063cea509a6146103ff5761007d565b806306fdde0314610082578063294f98b81461010557806355a373d614610123575b600080fd5b61008a610689565b6040518080602001828103825283818151815260200191508051906020019080838360005b838110156100ca5780820151818401526020810190506100af565b50505050905090810190601f1680156100f75780820380516001836020036101000a031916815260200191505b509250505060405180910390f35b61010d610727565b6040518082815260200191505060405180910390f35b61012b61072d565b604051808273ffffffffffffffffffffffffffffffffffffffff1673ffffffffffffffffffffffffffffffffffffffff16815260200191505060405180910390f35b6101a36004803603604081101561018357600080fd5b810190808035906020019092919080359060200190929190505050610753565b005b6101d1600480360360208110156101bb57600080fd5b8101908080359060200190929190505050610f7f565b005b6101ff600480360360208110156101e957600080fd5b81019080803590602001909291905050506119a9565b6040518088815260200180602001806020018781526020018673ffffffffffffffffffffffffffffffffffffffff1673ffffffffffffffffffffffffffffffffffffffff168152602001806020018060200185810385528b818151815260200191508051906020019080838360005b8381101561028957808201518184015260208101905061026e565b50505050905090810190601f1680156102b65780820380516001836020036101000a031916815260200191505b5085810384528a818151815260200191508051906020019080838360005b838110156102ef5780820151818401526020810190506102d4565b50505050905090810190601f16801561031c5780820380516001836020036101000a031916815260200191505b50858103835287818151815260200191508051906020019080838360005b8381101561035557808201518184015260208101905061033a565b50505050905090810190601f1680156103825780820380516001836020036101000a031916815260200191505b50858103825286818151815260200191508051906020019080838360005b838110156103bb5780820151818401526020810190506103a0565b50505050905090810190601f1680156103e85780820380516001836020036101000a031916815260200191505b509b50505050505050505050505060405180910390f35b610687600480360360a081101561041557600080fd5b810190808035906020019064010000000081111561043257600080fd5b82018360208201111561044457600080fd5b8035906020019184600183028401116401000000008311171561046657600080fd5b91908080601f016020809104026020016040519081016040528093929190818152602001838380828437600081840152601f19601f820116905080830192505050505050509192919290803590602001906401000000008111156104c957600080fd5b8201836020820111156104db57600080fd5b803590602001918460018302840111640100000000831117156104fd57600080fd5b91908080601f016020809104026020016040519081016040528093929190818152602001838380828437600081840152601f19601f820116905080830192505050505050509192919290803590602001909291908035906020019064010000000081111561056a57600080fd5b82018360208201111561057c57600080fd5b8035906020019184600183028401116401000000008311171561059e57600080fd5b91908080601f016020809104026020016040519081016040528093929190818152602001838380828437600081840152601f19601f8201169050808301925050505050505091929192908035906020019064010000000081111561060157600080fd5b82018360208201111561061357600080fd5b8035906020019184600183028401116401000000008311171561063557600080fd5b91908080601f016020809104026020016040519081016040528093929190818152602001838380828437600081840152601f19601f820116905080830192505050505050509192919290505050611c6b565b005b60008054600181600116156101000203166002900480601f01602080910402602001604051908101604052809291908181526020018280546001816001161561010002031660029004801561071f5780601f106106f45761010080835404028352916020019161071f565b820191906000526020600020905b81548152906001019060200180831161070257829003601f168201915b505050505081565b60035481565b600260009054906101000a900473ffffffffffffffffffffffffffffffffffffffff1681565b61075b612008565b600460008481526020019081526020016000206040518060e001604052908160008201548152602001600182018054600181600116156101000203166002900480601f01602080910402602001604051908101604052809291908181526020018280546001816001161561010002031660029004801561081c5780601f106107f15761010080835404028352916020019161081c565b820191906000526020600020905b8154815290600101906020018083116107ff57829003601f168201915b50505050508152602001600282018054600181600116156101000203166002900480601f0160208091040260200160405190810160405280929190818152602001828054600181600116156101000203166002900480156108be5780601f10610893576101008083540402835291602001916108be565b820191906000526020600020905b8154815290600101906020018083116108a157829003601f168201915b50505050508152602001600382015481526020016004820160009054906101000a900473ffffffffffffffffffffffffffffffffffffffff1673ffffffffffffffffffffffffffffffffffffffff1673ffffffffffffffffffffffffffffffffffffffff168152602001600582018054600181600116156101000203166002900480601f0160208091040260200160405190810160405280929190818152602001828054600181600116156101000203166002900480156109c05780601f10610995576101008083540402835291602001916109c0565b820191906000526020600020905b8154815290600101906020018083116109a357829003601f168201915b50505050508152602001600682018054600181600116156101000203166002900480601f016020809104026020016040519081016040528092919081815260200182805460018160011615610100020316600290048015610a625780601f10610a3757610100808354040283529160200191610a62565b820191906000526020600020905b815481529060010190602001808311610a4557829003601f168201915b505050505081525050905060008160800151905060008260000151118015610a905750600354826000015111155b610a9957600080fd5b82600260009054906101000a900473ffffffffffffffffffffffffffffffffffffffff1673ffffffffffffffffffffffffffffffffffffffff166370a08231336040518263ffffffff1660e01b8152600401808273ffffffffffffffffffffffffffffffffffffffff1673ffffffffffffffffffffffffffffffffffffffff16815260200191505060206040518083038186803b158015610b3957600080fd5b505afa158015610b4d573d6000803e3d6000fd5b505050506040513d6020811015610b6357600080fd5b81019080805190602001909291905050501015610bcb576040517f08c379a00000000000000000000000000000000000000000000000000000000081526004018080602001828103825260218152602001806121016021913960400191505060405180910390fd5b600260009054906101000a900473ffffffffffffffffffffffffffffffffffffffff1673ffffffffffffffffffffffffffffffffffffffff1663dbba0f018285336040518463ffffffff1660e01b8152600401808473ffffffffffffffffffffffffffffffffffffffff1673ffffffffffffffffffffffffffffffffffffffff1681526020018381526020018273ffffffffffffffffffffffffffffffffffffffff1673ffffffffffffffffffffffffffffffffffffffff1681526020019350505050602060405180830381600087803b158015610ca857600080fd5b505af1158015610cbc573d6000803e3d6000fd5b505050506040513d6020811015610cd257600080fd5b8101908080519060200190929190505050610d38576040517f08c379a00000000000000000000000000000000000000000000000000000000081526004018080602001828103825260318152602001806121226031913960400191505060405180910390fd5b7f56f97366516eebad29791ffe31b60e0651a70a1d4013e0c4480b2240d9c9bbfc60035483602001518460400151856060015186608001518760a001518860c001516040518088815260200180602001806020018781526020018673ffffffffffffffffffffffffffffffffffffffff1673ffffffffffffffffffffffffffffffffffffffff168152602001806020018060200185810385528b818151815260200191508051906020019080838360005b83811015610e04578082015181840152602081019050610de9565b50505050905090810190601f168015610e315780820380516001836020036101000a031916815260200191505b5085810384528a818151815260200191508051906020019080838360005b83811015610e6a578082015181840152602081019050610e4f565b50505050905090810190601f168015610e975780820380516001836020036101000a031916815260200191505b50858103835287818151815260200191508051906020019080838360005b83811015610ed0578082015181840152602081019050610eb5565b50505050905090810190601f168015610efd5780820380516001836020036101000a031916815260200191505b50858103825286818151815260200191508051906020019080838360005b83811015610f36578082015181840152602081019050610f1b565b50505050905090810190601f168015610f635780820380516001836020036101000a031916815260200191505b509b50505050505050505050505060405180910390a150505050565b610f87612008565b600460008381526020019081526020016000206040518060e001604052908160008201548152602001600182018054600181600116156101000203166002900480601f0160208091040260200160405190810160405280929190818152602001828054600181600116156101000203166002900480156110485780601f1061101d57610100808354040283529160200191611048565b820191906000526020600020905b81548152906001019060200180831161102b57829003601f168201915b50505050508152602001600282018054600181600116156101000203166002900480601f0160208091040260200160405190810160405280929190818152602001828054600181600116156101000203166002900480156110ea5780601f106110bf576101008083540402835291602001916110ea565b820191906000526020600020905b8154815290600101906020018083116110cd57829003601f168201915b50505050508152602001600382015481526020016004820160009054906101000a900473ffffffffffffffffffffffffffffffffffffffff1673ffffffffffffffffffffffffffffffffffffffff1673ffffffffffffffffffffffffffffffffffffffff168152602001600582018054600181600116156101000203166002900480601f0160208091040260200160405190810160405280929190818152602001828054600181600116156101000203166002900480156111ec5780601f106111c1576101008083540402835291602001916111ec565b820191906000526020600020905b8154815290600101906020018083116111cf57829003601f168201915b50505050508152602001600682018054600181600116156101000203166002900480601f01602080910402602001604051908101604052809291908181526020018280546001816001161561010002031660029004801561128e5780601f106112635761010080835404028352916020019161128e565b820191906000526020600020905b81548152906001019060200180831161127157829003601f168201915b5050505050815250509050600081608001519050600082600001511180156112bc5750600354826000015111155b61132e576040517f08c379a00000000000000000000000000000000000000000000000000000000081526004018080602001828103825260148152602001807f70726f64756374206973206e6f742076616c696400000000000000000000000081525060200191505060405180910390fd5b8160600151600260009054906101000a900473ffffffffffffffffffffffffffffffffffffffff1673ffffffffffffffffffffffffffffffffffffffff166370a08231336040518263ffffffff1660e01b8152600401808273ffffffffffffffffffffffffffffffffffffffff1673ffffffffffffffffffffffffffffffffffffffff16815260200191505060206040518083038186803b1580156113d257600080fd5b505afa1580156113e6573d6000803e3d6000fd5b505050506040513d60208110156113fc57600080fd5b81019080805190602001909291905050501015611464576040517f08c379a00000000000000000000000000000000000000000000000000000000081526004018080602001828103825260218152602001806121016021913960400191505060405180910390fd5b3373ffffffffffffffffffffffffffffffffffffffff168173ffffffffffffffffffffffffffffffffffffffff161415611506576040517f08c379a000000000000000000000000000000000000000000000000000000000815260040180806020018281038252601a8152602001807f62757965722063616e6e6f74206265207468652073656c6c657200000000000081525060200191505060405180910390fd5b600082606001519050600260009054906101000a900473ffffffffffffffffffffffffffffffffffffffff1673ffffffffffffffffffffffffffffffffffffffff1663dbba0f018383336040518463ffffffff1660e01b8152600401808473ffffffffffffffffffffffffffffffffffffffff1673ffffffffffffffffffffffffffffffffffffffff1681526020018381526020018273ffffffffffffffffffffffffffffffffffffffff1673ffffffffffffffffffffffffffffffffffffffff1681526020019350505050602060405180830381600087803b1580156115ec57600080fd5b505af1158015611600573d6000803e3d6000fd5b505050506040513d602081101561161657600080fd5b810190808051906020019092919050505061167c576040517f08c379a00000000000000000000000000000000000000000000000000000000081526004018080602001828103825260318152602001806121226031913960400191505060405180910390fd5b82600460008681526020019081526020016000206000820151816000015560208201518160010190805190602001906116b692919061205b565b5060408201518160020190805190602001906116d392919061205b565b506060820151816003015560808201518160040160006101000a81548173ffffffffffffffffffffffffffffffffffffffff021916908373ffffffffffffffffffffffffffffffffffffffff16021790555060a082015181600501908051906020019061174192919061205b565b5060c082015181600601908051906020019061175e92919061205b565b509050507fe990b0d9e6bcc342bde584830d1677a663b8b07089fe3aab5178cd055a029d3f60035484602001518560400151866060015187608001518860a001518960c001516040518088815260200180602001806020018781526020018673ffffffffffffffffffffffffffffffffffffffff1673ffffffffffffffffffffffffffffffffffffffff168152602001806020018060200185810385528b818151815260200191508051906020019080838360005b8381101561182e578082015181840152602081019050611813565b50505050905090810190601f16801561185b5780820380516001836020036101000a031916815260200191505b5085810384528a818151815260200191508051906020019080838360005b83811015611894578082015181840152602081019050611879565b50505050905090810190601f1680156118c15780820380516001836020036101000a031916815260200191505b50858103835287818151815260200191508051906020019080838360005b838110156118fa5780820151818401526020810190506118df565b50505050905090810190601f1680156119275780820380516001836020036101000a031916815260200191505b50858103825286818151815260200191508051906020019080838360005b83811015611960578082015181840152602081019050611945565b50505050905090810190601f16801561198d5780820380516001836020036101000a031916815260200191505b509b50505050505050505050505060405180910390a150505050565b6004602052806000526040600020600091509050806000015490806001018054600181600116156101000203166002900480601f016020809104026020016040519081016040528092919081815260200182805460018160011615610100020316600290048015611a5b5780601f10611a3057610100808354040283529160200191611a5b565b820191906000526020600020905b815481529060010190602001808311611a3e57829003601f168201915b505050505090806002018054600181600116156101000203166002900480601f016020809104026020016040519081016040528092919081815260200182805460018160011615610100020316600290048015611af95780601f10611ace57610100808354040283529160200191611af9565b820191906000526020600020905b815481529060010190602001808311611adc57829003601f168201915b5050505050908060030154908060040160009054906101000a900473ffffffffffffffffffffffffffffffffffffffff1690806005018054600181600116156101000203166002900480601f016020809104026020016040519081016040528092919081815260200182805460018160011615610100020316600290048015611bc35780601f10611b9857610100808354040283529160200191611bc3565b820191906000526020600020905b815481529060010190602001808311611ba657829003601f168201915b505050505090806006018054600181600116156101000203166002900480601f016020809104026020016040519081016040528092919081815260200182805460018160011615610100020316600290048015611c615780601f10611c3657610100808354040283529160200191611c61565b820191906000526020600020905b815481529060010190602001808311611c4457829003601f168201915b5050505050905087565b6000855111611c7957600080fd5b6000845111611c8757600080fd5b60008311611c9457600080fd5b6003600081548092919060010191905055506040518060e0016040528060035481526020018681526020018581526020018481526020013373ffffffffffffffffffffffffffffffffffffffff16815260200183815260200182815250600460006003548152602001908152602001600020600082015181600001556020820151816001019080519060200190611d2c92919061205b565b506040820151816002019080519060200190611d4992919061205b565b506060820151816003015560808201518160040160006101000a81548173ffffffffffffffffffffffffffffffffffffffff021916908373ffffffffffffffffffffffffffffffffffffffff16021790555060a0820151816005019080519060200190611db792919061205b565b5060c0820151816006019080519060200190611dd492919061205b565b509050507fa2297c5f64107dde1a6f47aa0689d1b840949acec8c18cba673ff9eb1929a70a6003548686863387876040518088815260200180602001806020018781526020018673ffffffffffffffffffffffffffffffffffffffff1673ffffffffffffffffffffffffffffffffffffffff168152602001806020018060200185810385528b818151815260200191508051906020019080838360005b83811015611e8c578082015181840152602081019050611e71565b50505050905090810190601f168015611eb95780820380516001836020036101000a031916815260200191505b5085810384528a818151815260200191508051906020019080838360005b83811015611ef2578082015181840152602081019050611ed7565b50505050905090810190601f168015611f1f5780820380516001836020036101000a031916815260200191505b50858103835287818151815260200191508051906020019080838360005b83811015611f58578082015181840152602081019050611f3d565b50505050905090810190601f168015611f855780820380516001836020036101000a031916815260200191505b50858103825286818151815260200191508051906020019080838360005b83811015611fbe578082015181840152602081019050611fa3565b50505050905090810190601f168015611feb5780820380516001836020036101000a031916815260200191505b509b50505050505050505050505060405180910390a15050505050565b6040518060e0016040528060008152602001606081526020016060815260200160008152602001600073ffffffffffffffffffffffffffffffffffffffff16815260200160608152602001606081525090565b828054600181600116156101000203166002900490600052602060002090601f016020900481019282601f1061209c57805160ff19168380011785556120ca565b828001600101855582156120ca579182015b828111156120c95782518255916020019190600101906120ae565b5b5090506120d791906120db565b5090565b6120fd91905b808211156120f95760008160009055506001016120e1565b5090565b9056fe6d73672e73656e6465722068617320696e73756666696369656e7420746f6b656e756e61626c6520746f2063616c6c207472616e73666572206675636e74696f6e206f6620746f6b656e636f6e7472616374a265627a7a723158204cdbe28ef81bcfaa71d128a8b1e1faa13a74d8a707b19f34ff651176dcd790e964736f6c63430005100032",
  "source": "pragma solidity 0.5.16;\r\n\r\nimport './DappToken.sol';\r\n\r\ncontract Musicc {\r\n    \r\n    string public name;\r\n    address admin;\r\n    DappToken public tokenContract;\r\n    uint public musicCount = 0;\r\n    mapping(uint => Music) public music;\r\n\r\n    struct Music\r\n    {\r\n        uint id;\r\n        string musicName;\r\n        string artistName;\r\n        uint price;\r\n        address payable owner;\r\n        string musicIdentifier;\r\n        string aesKey;\r\n    }\r\n\r\n    //events are created to make sure that receipts are obtained after a txn is completed.\r\n    event MusicAdded\r\n    (\r\n        uint id,\r\n        string musicName,\r\n        string artistName,\r\n        uint price,\r\n        address payable owner,\r\n        string musicIdentifier,\r\n        string aesKey\r\n       \r\n    );\r\n\r\n     event MusicPurchased\r\n    (\r\n        uint id,\r\n        string musicName,\r\n        string artistName,\r\n        uint price,\r\n        address payable owner,\r\n        string musicIdentifier,\r\n        string aesKey\r\n       \r\n    );\r\n\r\n    event MusicTipped\r\n    (\r\n        uint id,\r\n        string musicName,\r\n        string artistName,\r\n        uint price,\r\n        address payable owner,\r\n        string musicIdentifier,\r\n        string aesKey\r\n       \r\n    );\r\n    \r\n    constructor(DappToken _tokenContract) public{\r\n        admin = msg.sender;\r\n        tokenContract = _tokenContract;\r\n        name = \"Music Marketplace\";\r\n    } \r\n\r\n    function musicAdd(string memory _musicName, string memory _artistName, uint _price, string memory _musicIdentifier, string memory _aesKey) public\r\n    {\r\n        //Require valid name\r\n        require(bytes(_musicName).length > 0);\r\n        require(bytes(_artistName).length > 0);\r\n        //Require valid price\r\n        require(_price > 0);\r\n        //Increment productCount\r\n        musicCount ++;\r\n        //Create the product\r\n        music[musicCount] = Music(musicCount, _musicName, _artistName, _price, msg.sender,  _musicIdentifier, _aesKey);\r\n        //Trigger an event\r\n        emit MusicAdded(musicCount, _musicName, _artistName, _price, msg.sender,  _musicIdentifier, _aesKey);\r\n    }\r\n\r\n    function musicPurchase(uint _id) public \r\n    {\r\n        //fetch product\r\n        //memory space is being used to store copy of said product i.e copy of products[_id]\r\n        Music memory _product = music[_id];\r\n\r\n        //fetch owner\r\n        address payable _seller = _product.owner;\r\n\r\n        //check if product has valid id\r\n        require(_product.id >0 && _product.id <= musicCount, 'product is not valid');\r\n\r\n        //check is there is enough token of the msg.sender\r\n        require(tokenContract.balanceOf(msg.sender) >= _product.price, 'msg.sender has insufficient token');\r\n\r\n        //check if the buyer is not the seller\r\n        require(_seller != msg.sender, 'buyer cannot be the seller');\r\n\r\n        uint256 _tokenPrice = _product.price;\r\n        //pay the seller by calling the transfer fucntion in Dapptoken.sol\r\n        require(tokenContract.transfer(_seller, _tokenPrice, msg.sender), 'unable to call transfer fucntion of tokencontract');\r\n\r\n        //update product\r\n        music[_id] = _product;\r\n\r\n        //trigger an event \r\n        emit MusicPurchased(musicCount, _product.musicName, _product.artistName, _product.price, _product.owner , _product.musicIdentifier, _product.aesKey);\r\n    } \r\n\r\n    function musicTip(uint _id, uint256 _tokenNumber) public \r\n    {\r\n        //fetch product\r\n        Music memory _product = music[_id];\r\n        \r\n        //fetch owner\r\n        address payable _seller = _product.owner;\r\n\r\n        //check if product is valid\r\n        require(_product.id >0 && _product.id <= musicCount);\r\n\r\n        //check is there is enough token of the msg.sender\r\n        require(tokenContract.balanceOf(msg.sender) >= _tokenNumber, 'msg.sender has insufficient token');\r\n\r\n        //pay the seller by tranfering token\r\n        require(tokenContract.transfer(_seller, _tokenNumber, msg.sender), 'unable to call transfer fucntion of tokencontract');\r\n\r\n        //trigger an event\r\n        emit MusicTipped(musicCount, _product.musicName, _product.artistName, _product.price, _product.owner , _product.musicIdentifier, _product.aesKey);\r\n    }\r\n}",
  "sourcePath": "D:\\apurba\\projects\\musicDapp\\src\\contracts\\Music.sol",
  "compiler": {
    "name": "solc",
    "version": "0.5.16+commit.9c3226ce.Emscripten.clang"
  },
  "schemaVersion": "3.0.23",
  "updatedAt": "2020-09-21T04:51:25.287Z",
  "networkType": "ethereum",
  "devdoc": {
    "methods": {}
  },
  "userdoc": {
    "methods": {}
  }
}